:020000040800F2
:1000000008A6012059020008EB220008BD1F0008C5
:10001000E9220008550A0008C93000080000000065
:100020000000000000000000000000009D0100082A
:10003000570A000800000000F10100085D280008D0
:1000400073020008730200087302000873020008BC
:1000500073020008ED220008590A0008950A0008FA
:100060009B0A0008A10A0008A70A000873020008FA
:10007000730200087302000873020008730200088C
:10008000730200087302000873020008730200087C
:10009000730200087302000873020008AD0A00082A
:1000A000730200087302000873020008730200085C
:1000B000730200087302000873020008730200084C
:1000C000730200087302000873020008730200083C
:1000D000730200087302000873020008730200082C
:1000E0005F0A000873020008730200087302000828
:1000F00073020008730200086129000873020008F7
:1001000073020008730200087302000873020008FB
:1001100073020008730200087302000873020008EB
:1001200073020008730200087302000873020008DB
:1001300073020008730200087302000873020008CB
:1001400073020008730200087302000873020008BB
:1001500073020008730200087302000873020008AB
:10016000730200087302000873020008730200089B
:100170007302000873020008730200080000000008
:100180007302000873020008DFF80CD000F00CFBCB
:10019000004800471338000808A601202B4B1968B7
:1001A0000868B0E8F04F80F30988BFF36F8F4FF015
:1001B000000080F3118870470000000006480068C6
:1001C000006880F3088862B661B6BFF34F8FBFF353
:1001D0006F8F00DF00BF00BF08ED00E0DFF80C000C
:1001E000016841F470010160704700BF88ED00E0D4
:1001F000EFF30980BFF36F8F144B1A681EF0100FD6
:1002000008BF20ED108A20E9F04F106008B44FF0CD
:10021000100080F31188BFF34F8FBFF36F8F04F08E
:1002200009FD4FF0000080F3118808BC19680868C8
:10023000B0E8F04F1EF0100F08BFB0EC108A80F34A
:100240000988BFF36F8F704700BF00BF0401002013
:10025000EFF30580704700000648804706480047D6
:10026000FEE7FEE7FEE7FEE7FEE7FEE7FEE7FEE766
:10027000FEE7FEE7092900088901000840EA0103BA
:100280009B0703D009E008C9121F08C0042AFAD24C
:1002900003E011F8013B00F8013B521EF9D2704710
:1002A000D2B201E000F8012B491EFBD270470022B8
:1002B000F6E710B513460A4604461946FFF7F0FF65
:1002C000204610BD421C10F8011B0029FBD1801AEA
:1002D0007047034611F8012B00F8012B002AF9D1D1
:1002E000184670472DE9FE4F81EA030404F00044EC
:1002F00021F0004100944FF0000B23F0004350EA3E
:1003000001045ED052EA03045BD0C3F30A54C1F384
:100310000A552C44A4F2F3340194A0FB0254C1F317
:10032000130141F48011C3F3130343F4801301FB61
:10033000024400FB034E840A970A44EA815447EAC8
:100340008357A4FB076802958D0A05FB07854FEAD2
:10035000932C04FB0C542705029D4FEA065847EAEC
:100360001637B5EB08056EEB070C870E920E47EAC1
:10037000811742EA8312A7FB0201B6EB0B0164EB83
:1003800000042B0D43EA0C335E1844EB1C50DA4694
:100390005146E7FB0201C5F313044FEA0B3343EA6E
:1003A00014534FEA0432019C43EA0603A4F10C04FF
:1003B0000294009CCDE900B400F057F903B0BDE809
:1003C000F08F00200146F9E72DE9F04D81EA0304A2
:1003D00004F0004B21F0004514464FF0000A23F0D2
:1003E000004150EA050220D054EA01021DD0C5F3B5
:1003F0000A570246C5F31303C1F31300C1F30A56AB
:1004000040F4801543F48013A7EB0608101BD64672
:1004100008F2FD3873EB050002D308F1010801E092
:1004200092185B41B8F1000F03DA00200146BDE8E5
:10043000F08D00204FF48011064684460EE0171B15
:1004400073EB050705D3121B63EB050306434CEA68
:10045000010C49084FEA300092185B4150EA01074D
:10046000EDD152EA030012D082EA040083EA0501CA
:10047000084305D0101BAB4106D20122002306E041
:1004800000224FF0004302E06FF0010253101AEB1C
:1004900006004CEB085110EB0A0041EB0B01BDE8E4
:1004A000F04D00F0D3B80EB540F233410291002177
:1004B000CDE900110A460B4600F0D7F803B000BDA5
:1004C00070B5C1F30A5201F000450024C1F31301D5
:1004D00040F2FF3341F480119A4201DA002070BDEE
:1004E00040F233439A42A2F2334203DC524200F01C
:1004F00066F800E090402C43F1D0404270BD00F01F
:10050000004230F000400AD0C10D01F56071C0F327
:10051000160042EA0151C20840071143704700200B
:100520000146704701F0004330B421F0004150EA29
:10053000010206D00A0DA2F56072C1F31301002A70
:1005400002DC30BC00207047440F44EAC104C10003
:10055000E01830BC00EBC25000F041B82DE9F05F6C
:100560000546002092469B46884606468146402422
:100570001BE0284641464746224600F020F85346F5
:100580005A46C01A914110D311461846224600F02F
:100590001DF92D1A67EB01084F4622460120002164
:1005A00000F014F917EB00094E41201EA4F10104DC
:1005B000DFDC484631462A464346BDE8F09F202A04
:1005C00004DB203A21FA02F00021704721FA02F3FD
:1005D000D040C2F1200291400843194670470029DB
:1005E000A8BF7047401C490008BF20F001007047B9
:1005F00010B4B0FA80FC00FA0CF050EA010404BF19
:1006000010BC704749B1CCF1200421FA04F411FA6E
:100610000CF118BF012121430843A3EB0C01CB1DB2
:100620004FEA00614FEA102042BF002010BC704723
:1006300000EBC35010440029A4BF10BC7047401CFD
:10064000490008BF20F0010010BC704710B5141E0F
:1006500073F1000408DA401C41F1000192185B417B
:100660001A4301D120F0010010BD2DE9F04D924652
:100670009B4611B1B1FA81F202E0B0FA80F2203269
:10068000904600F0A3F804460F4640EA0A0041EA0B
:100690000B0153465A46084313D0114653EA010052
:1006A00019D0C8F140025046FFF789FF05460E46B3
:1006B00050465946424600F089F8084305D00120CB
:1006C00004E020463946BDE8F08D0020054346EAA7
:1006D000E0762C4337430A986305E40AA0EB080050
:1006E0000022FD0A44EA47540A3002D500200146A0
:1006F000E9E7010510196941DDE90845001969417B
:10070000BDE8F04DA2E72DE9F04D00231A461B1A73
:100710008A4103DB00200146BDE8F08DC1F30A5297
:10072000C1F3130141F480154FF0000BD10702D142
:1007300000186D41521E0027044640F2FF11384652
:1007400001EB620A3E468046024600204FF48011CB
:10075000FFF735FFC2197141BB1846EB0100B4EB3E
:10076000030C75EB000C04D3E41A65EB0005174687
:100770000E46241908F101006D4180463428E3DD5E
:10078000F91946EB0600091BA84103D24FF0FF32CE
:10079000134601E0002213461BEB070046EB0A510B
:1007A000BDE8F04DFFF752BF064C074D06E0E0688C
:1007B00040F0010394E8070098471034AC42F6D3A8
:1007C000FFF7E6FCF45E0008145F0008202A04DB53
:1007D000203A00FA02F1002070479140C2F1200354
:1007E00020FA03F319439040704770B58C1810F845
:1007F000015B15F0070301D110F8013B2A1106D166
:1008000010F8012B03E010F8016B01F8016B5B1E7F
:10081000F9D12B0705D40023521E0DD401F8013B5A
:10082000FAE710F8013BCB1A921C03E013F8015BC6
:1008300001F8015B521EF9D5A142D8D3002070BD4A
:1008400010B500220421082004F056FE184CA061C7
:1008500010B918A002F03AFC00220421082004F08C
:100860004BFEE06110B91BA002F030FC0022042115
:10087000082004F041FE206210B91EA002F026FC00
:1008800000220421082004F037FE606210B921A084
:1008900002F01CFC00220121072004F02DFEA062C2
:1008A000002804D1BDE8104022A002F00FBC10BD0A
:1008B000000000207851756575653120646F6E27E2
:1008C0007420736574207570204552524F52202158
:1008D0000A0000007851756575653220646F6E27D7
:1008E0007420736574207570204552524F52202138
:1008F0000A0000007851756575653320646F6E27B6
:100900007420736574207570204552524F52202117
:100910000A0000007851756575653420646F6E2794
:100920007420736574207570204552524F522021F7
:100930000A0000007851756575653520646F6E2773
:100940007420736574207570204552524F522021D7
:100950000A00000000B583B0012120488A020091FE
:10096000019000231EA1214805F04CF802212048E7
:100970004A020091019000231EA1214805F042F88F
:10098000204803210091019000234FF480621EA1B2
:10099000204805F037F804211F480A020091019011
:1009A00000231EA1204805F02DF8204805210091C4
:1009B000019000234FF480621DA1204805F022F829
:1009C0001F4806210091019000234FF400721DA1E1
:1009D0001F4805F017F803B000BD0000000000201C
:1009E000765461736B55736572494600AD4C0008CF
:1009F00004000020765461736B585F61786973005E
:100A00006550000808000020765461736B595F61DF
:100A100078697300355100080C000020765461732A
:100A20006B5A5F61786973008152000810000020E2
:100A3000765461736B525F6178697300254A0008D0
:100A400014000020765461736B495F646174610027
:100A500009480008FEE77047012000F0C7B810B54C
:100A60004FF4806000F0C2F84FF4006000F0BEF870
:100A70004FF4805000F0BAF84FF4005000F0B6F890
:100A80004FF4804000F0B2F8BDE810404FF4004051
:100A900000F0ACB8022000F0A9B8042000F0A6B81D
:100AA000082000F0A3B8102000F0A0B810B5202056
:100AB00000F09CF8402000F099F8802000F096F8B3
:100AC0004FF4807000F092F8BDE810404FF40070D1
:100AD00000F08CB810B50121034800F0A1F908B16D
:100AE000002010BD012010BD0014024010B50221ED
:100AF000034800F095F908B1002010BD012010BD99
:100B00000014024010B54FF48061044800F088F9E9
:100B100008B1002010BD012010BD000000200240DF
:100B20002DE9F05F05460024DFF8A0B0DFF8A080D3
:100B3000A14601270BF1260A264800EBC40671885E
:100B4000A94214D1C8F80010706800F069F97178F2
:100B5000884202D10BF8047009E01F4807551BF8C2
:100B60000400012803D1C4EBC4000AF820901B48FC
:100B700000EBC4067188A9420DD1C8F80010706856
:100B800000F04EF97178884205D115480755C4EB3D
:100B9000C4000AF82090134800EBC4067188A942EB
:100BA0000DD1C8F80010706800F03AF971788842E9
:100BB00005D10D480755C4EBC4000AF82090601C0D
:100BC000C4B2042CB8D3BDE8F09F00006E00002032
:100BD000143C0140645E000872000020A45E00081E
:100BE00062000020845E00086600002010B5044901
:100BF0000A68024202D00860FFF792FF10BD0000B1
:100C0000143C01402DE9F84F0022DFF80082DFF8A4
:100C10000092DFF800A24FF0030E0F27012303FA22
:100C200002F50B682B40AB427DD1D1F804C0BCF17A
:100C3000020F02D0BCF1120F12D14FEAD20C00EB1E
:100C40008C0CDCF820605407E40E07FA04FB26EA5B
:100C50000B06D1F810B00BFA04F43443CCF8204062
:100C600006684FEA420C0EFA0CF4A64391F804B061
:100C70000BF0030B0BFA0CFB4BEA060606604E6802
:100C8000012E05D0022E03D0112E01D0122E11D12B
:100C90008668A643D1F80CB00BFA0CFB4BEA0606AB
:100CA0008660466826EA05050E79C6F3001696406A
:100CB00035434560C56825EA04048D6805FA0CFCD7
:100CC0004CEA040CC0F80CC0D1F804C01CF0805FE2
:100CD0007DD0D8F800C04CF4804CC8F800C0D8F8DB
:100CE00000C00CF4804CCDF800C022F0030C0CF1D5
:100CF000804404F59834D4F808C895072D0F07FAF6
:100D000005F62CEA0606A0F1804CBCF5003C64D048
:100D1000A0F1804CBCF5013C62D0A0F1804CBCF548
:100D2000023C60D000E052E0A0F1804CBCF5033CF6
:100D30005CD0A0F1804CBCF5043C5AD0A0F1804CB2
:100D4000BCF5053C58D0A0F1804CBCF5063C56D013
:100D5000A0F1804CBCF5073C54D04FF0080C0CFAC5
:100D600005FC4CEA060CC4F808C8D9F800C02CEA07
:100D7000030C4C6814F4803F01D04CEA030CC9F812
:100D800000C0254CD4F800C02CEA030C4D6815F4C3
:100D9000003F01D04CEA030CC4F800C0DAF800C0F0
:100DA0002CEA030C4C6814F4801F01D04CEA030CAD
:100DB000CAF800C0194CD4F800C02CEA030C4D68E6
:100DC00015F4001F01D04CEA030CC4F800C0521CFB
:100DD000102AFFF423AFBDE8F88F4FF0000CBEE7F8
:100DE0004FF0010CBBE74FF0020CB8E74FF0030CDB
:100DF000B5E74FF0040CB2E74FF0050CAFE74FF04A
:100E0000060CACE74FF0070CA9E70000443802409D
:100E1000003C0140083C0140043C01400C3C0140C6
:100E20000069084201D001207047002070474269E4
:100E3000514041617047002A01D081617047090427
:100E4000816170470148006870470000540000202D
:100E500002480168491C01607047000054000020EE
:100E600010B50B48016841F400710160016841F45C
:100E700080610160016841F480710160032000F02D
:100E800091F8002000F006F800F018F8002010BDDE
:100E9000003C024010B5044607484FF47A720068DF
:100EA000B0FBF2F000F034FC00222146501E00F0AE
:100EB00045F8002010BD00005800002010B50320A8
:100EC00000F070F8002211466FF00B0000F036F8C9
:100ED000002211466FF00A0000F030F8002211469F
:100EE0006FF0090000F02AF800221146501F00F0B0
:100EF00025F800221146101F00F020F800221146AC
:100F0000901E00F01BF800220F21501E00F016F872
:100F100000221146052000F011F8BDE81040052020
:100F2000AFF3008000F01F01012202FA01F1400935
:100F3000800000F1E020C0F80011704710B4184B99
:100F40001B68C3F30223C3F1070CBCF1040F01D9E2
:100F50004FF0040C1C1D072C01D2002300E0DB1E07
:100F6000012404FA0CFCACF1010C0CEA01019940DB
:100F700004FA03F35B1E1A401143002808DA00F05C
:100F80000F0000F1E020090180F8141D10BC70472B
:100F900000F1E020090180F8001410BC7047000047
:100FA0000CED00E000F00700064A11684FF6FF0361
:100FB000194041EA002040F0FD7040F08060106070
:100FC000704700000CED00E02DE9F05F04460E468E
:100FD000DFF8D091D9F80000F7B200F00F00B0426E
:100FE0000AD289F80070D9F8000000F00F00B04272
:100FF00002D00120BDE8F09F2078DFF8AC8110F02E
:10100000020F07D0D8F80000A16820F0F0000843D4
:10101000C8F80000207810F0010F51D060686349D3
:10102000012808D002280DD003280BD0096811F040
:10103000020F2ED00AE0096811F4003F06D101200A
:10104000BDE8F09F096811F0007F1FD0D8F80010AC
:1010500021F003010843C8F80000FFF7F3FE05463E
:10106000606841F2883A012816D0022829D0032866
:101070003CD0D8F8000010F00C0F51D0FFF7E2FE82
:10108000401B504547D90320BDE8F09F0120BDE833
:10109000F09F0120BDE8F09FD8F8000000F00C00A0
:1010A00004283DD0FFF7CEFE401B504502D9032057
:1010B000BDE8F09FD8F8000000F00C000428F1D142
:1010C0002EE0D8F8000000F00C00082828D0FFF728
:1010D000B9FE401B504502D90320BDE8F09FD8F867
:1010E000000000F00C000828F1D119E0D8F8000049
:1010F0004FF00C0B3BEA000012D0FFF7A3FE401BA1
:10110000504502D90320BDE8F09FD8F800003BEA23
:101110000000F2D104E0D8F8000010F00C0FADD1BF
:10112000D9F8000000F00F00B0420AD989F8007029
:10113000D9F8000000F00F00B04202D00120BDE855
:10114000F09F207810F0040F07D0D8F80000E16875
:1011500020F4E0500843C8F80000207810F0080F91
:1011600008D0D8F80000216920F4604040EAC100AE
:10117000C8F8000000F058F8D8F80010F02292FAF1
:10118000A2F201F0F001B2FA82F2D140084A515CB9
:10119000C840084908600020FFF77CFE0020BDE839
:1011A000F09F0000003C0240083802400038024036
:1011B0000C5E00085800002001490120C8647047F7
:1011C00000004742014800687047000058000020B6
:1011D00000B5FFF7F7FF074909684FF4E05292FAAC
:1011E000A2F201F4E051B2FA82F2D140024A515C1B
:1011F000C84000BD083802401C5E000800B5FFF77B
:10120000E1FF074909684FF4604292FAA2F201F443
:101210006041B2FA82F2D140024A515CC84000BD3E
:10122000083802401C5E000810B41F48006810F027
:101230000C011E481BD04FEA600C042916D0082967
:1012400015D11B4A116801F03F01136813F4800F98
:1012500047F6C0730DD0BCFBF1F01168194093FA4A
:10126000A3F3B3FA83F3D94048430CE0604610BCC3
:101270007047B0FBF1F01168194093FAA3F3B3FA89
:1012800083F3D940484311684FF4403292FAA2F2F6
:1012900001F44031B2FA82F2D140491C4900B0FB5E
:1012A000F1F010BC70470000083802400024F40040
:1012B000043802402DE9F84F0446DFF81C842078FA
:1012C000A8F1040710F0010FA7F1040560D0D8F8C9
:1012D000000000F00C00042809D0D8F8000000F04D
:1012E0000C0008280DD1386810F4800F09D0286848
:1012F00010F4003F4CD06068002849D10120BDE8BF
:10130000F88F6068B0F5803F14D0B0F5A02F16D0EC
:10131000286820F480302860286820F48020286025
:10132000606810B3FFF78EFD0646286810F4003F92
:101330000ED02DE0286840F480302860F0E728685F
:1013400040F480202860286840F480302860E7E777
:10135000FFF778FD801B642802D90320BDE8F88FD1
:10136000286810F4003FF3D012E0FFF76BFD06464B
:10137000286810F4003F0BD0FFF764FD801B642841
:1013800002D90320BDE8F88F286810F4003FF3D19C
:101390002078DFF8489310F0020F4FF0000663D07A
:1013A000D8F800004FF0F80B10F00C0F16D0D8F85A
:1013B000000000F00C00082803D1386810F4800FFA
:1013C0000CD0E068C8B30120C9F80000FFF73AFD6F
:1013D0008246286810F0020F16D022E0286810F02C
:1013E000020F05D0E068012802D00120BDE8F88F87
:1013F00028689BFAABF22169B2FA82F220F0F80079
:101400009140084328602FE0FFF71CFDA0EB0A0085
:10141000022802D90320BDE8F88F286810F0020FD7
:10142000F2D028689BFAABF22169B2FA82F220F07E
:10143000F80091400843286016E0FFE7C9F8006013
:10144000FFF700FD8246286810F0020F0CD0FFF76E
:10145000F9FCA0EB0A00022802D90320BDE8F88FAE
:10146000286810F0020FF2D1207810F0080F34D065
:101470009B48DFF870B26169C1B101210160FFF7DB
:10148000E1FC8246DBF8000010F0020F25D1FFF7E7
:10149000D9FCA0EB0A00022802D90320BDE8F88F8E
:1014A000DBF8000010F0020FF1D016E00660FFF745
:1014B000C9FC8246DBF8000010F0020F0DD0FFF7E8
:1014C000C1FCA0EB0A00022802D90320BDE8F88F76
:1014D000DBF8000010F0020FF1D1207810F0040FBB
:1014E00043D08148016841F080510160006800F0FC
:1014F00080500090DFF8F4B1DBF8000040F4807019
:10150000CBF80000FFF79EFC8246DBF8000010F4E9
:10151000807F0DD1FFF796FCA0EB0A00022802D9CC
:101520000320BDE8F88FDBF8000010F4807FF1D0D5
:10153000A068DFF8BCB1012818D005281DD0DBF861
:10154000000020F00100CBF80000DBF8000020F0E4
:101550000400CBF80000A06868B3FFF773FC824674
:10156000DBF8000010F0020F14D03CE0DBF80000C4
:1015700040F00100CBF80000EDE7DBF8000040F0A0
:101580000400CBF80000DBF8000040F00100CBF8CD
:101590000000E0E7FFF756FCA0EB0A0141F28830BB
:1015A000814202D90320BDE8F88FDBF8000010F07B
:1015B000020FEFD017E0FFF745FC8246DBF8000092
:1015C00010F0020F0FD0FFF73DFCA0EB0A0141F233
:1015D0008830814202D90320BDE8F88FDBF8000093
:1015E00010F0020FEFD1A069F0B3D8F8001001F0AD
:1015F0000C0108296CD0022810D0C9F86060FFF7F0
:1016000021FC0446286810F0007F5ED0FFF71AFC2A
:10161000001B022855D90320BDE8F88FC9F8606087
:10162000FFF710FC0646286810F0007F0BD0FFF78C
:1016300009FC801B022802D90320BDE8F88F286826
:1016400010F0007FF3D1216AE0694FF0FF3340EAE8
:10165000010247F6C07191FAA1F1606AB1FA81F115
:1016600000FA01F1A06A00E02FE003EB50004FF414
:10167000403393FAA3F3B3FA83F39840084310433B
:101680004FF0706292FAA2F2E16AB2FA82F29140ED
:10169000084338600120C9F86000FFF7D3FB044617
:1016A000286810F0007F10D1FFF7CCFB001B022848
:1016B00002D90320BDE8F88F286810F0007FF3D02E
:1016C00003E0286810F0007FA0D10020BDE8F88F6B
:1016D0000120BDE8F88F00000838024000004742B2
:1016E000800E47427438024040380240007000408B
:1016F000703802404FF0E021042804D0086920F03F
:10170000040008617047086940F0040008617047F0
:10171000401EB0F1807F01D3012070474FF0E021DF
:101720004861044AF0201070002088610720086199
:101730000020704723ED00E010B50446002C03D0D4
:1017400094F8390010B107E0012010BD002084F8A2
:101750003800204600F00CF8022084F83900211DE2
:10176000206801F031F9012084F83900002010BD13
:101770007047022180F8391001680A6842F00102BE
:101780000A60012180F839100020704770B50446C6
:1017900094F83800012818D0012584F83850022028
:1017A00084F839002068826822F0770222F47F42B0
:1017B0008260086850283AD00EDC20285FD006DC12
:1017C000002852D0102863D154E0022070BD302888
:1017D0005AD040285CD13EE0602832D070280CD02E
:1017E000B0F5805F03D0B0F5005F51D113E0206801
:1017F000816821F0070181604AE0CB684A68896806
:10180000206801F052F92068816821F0770141F0E9
:10181000770181603CE0CB684A688968206801F004
:1018200044F92068816841F48041816030E0CA68F1
:101830004968206801F01CFA5021206801F040F945
:1018400026E0CA684968206801F025FA602120680E
:1018500001F036F91CE0CA684968206801F008FA0E
:101860004021206801F02CF912E00021206801F0ED
:1018700027F90DE01021206801F022F908E020216D
:10188000206801F01DF903E03021206801F018F90B
:1018900084F83950002084F8380070BD2DE9F84FE5
:1018A000044600270097C8480168486AC74A108064
:1018B000C4EBC40002F1380E0EEB8005AB68128851
:1018C0001344C34A02EB0416726822F00302343256
:1018D0008B50AEF116010A5D521C0A550A5D022AB0
:1018E00076D10F5595F90110AEF12E02B1F1FF3FFF
:1018F000A2F1040101F1080B1ED0095D012926D0D7
:1019000017551EF82010DFF8D082DFF8C89208F1D2
:10191000100A11B30126A8F110024FF4A06CA9F12E
:1019200008034FF0020B01293DD0022900F0DF80AF
:10193000032940F03E819FE0125D012A01D00F553E
:10194000DFE70EF820700BF804700F55D9E70EF89A
:1019500020700BF804701755D3E700229F48716878
:1019600001F096F8F068C143974800680161964815
:10197000716800F09DF99A4A04EB440032F8201097
:1019800002EB800001228068FFF755FA0BF8047023
:1019900048F824704AF8247029F814706F61AF6019
:1019A0002F6100F006B958F82410491C48F824109B
:1019B000697801290DD052F82410491E42F82410EC
:1019C00052F8241091FBFCF20CFB121199B117E0B4
:1019D000F8E052F82410491C42F8241052F8241060
:1019E00091FBFCF20CFB121151B933F81410491C95
:1019F00023F8141004E033F81410491E23F81410CF
:101A00006969491C69615AF82410AA6801EB42010E
:101A10006A6906EB820291FBF2F1AA68511A009101
:101A20005AF82410AA6801EB42016A6906EB8202A7
:101A300091FBF2F302FB13114AF8241058F824101A
:101A40006A68914204D3E96869610EF820B00FE03A
:101A50002969009A91420BD3E9686961009929F8D4
:101A60001410296900914AF8247003210EF82010FF
:101A7000009829F814009CE058F82410491C48F8F4
:101A80002410697801290CD052F82410491E42F81C
:101A9000241052F8241091FBFCF20CFB121191B1AE
:101AA00016E052F82410491C42F8241052F8241071
:101AB00091FBFCF20CFB121151B933F81410491CC4
:101AC00023F8141004E033F81410491E23F81410FE
:101AD0002969009158F824106A68914269D3E9682D
:101AE000696139F8141000910EF820B061E058F8DF
:101AF0002410491C48F82410697801290CD052F8A8
:101B00002410491E42F8241052F8241091FBFCF2D4
:101B10000CFB121191B116E052F82410491C42F846
:101B2000241052F8241091FBFCF20CFB121151B955
:101B300033F81410491C23F8141004E033F814107F
:101B4000491E23F814106969491C69615AF8241068
:101B5000AA6801EB42016A6906EB820291FBF2F18D
:101B6000AA68511A00915AF82410AA6801EB4201A0
:101B70006A6906EB820291FBF2F302FB13114AF849
:101B800024106969002901DB0EF820701549095DF0
:101B900079B1A969009A91420BD8A9692961A9690B
:101BA00000914FF0FF3169604AF8247003210EF86C
:101BB00020100098B0F5803F02D34FF6FF700090E0
:101BC0000098A860BDE8F88F300200205C0000207B
:101BD000245E00088A00002010020020000401405A
:101BE000C45E00085E00002070B5044694F838001A
:101BF00001280DD0012584F83850022084F83900DE
:101C000042B1042A0AD0082A0CD00C2A11D10DE0C6
:101C1000022070BD206800F05BFF0AE0206800F041
:101C20008BFF06E0206800F0BFFF02E0206800F0B4
:101C3000F3FF84F83950002084F8380070BD10B5E7
:101C400004460029226806D0042909D008290CD0AE
:101C50000C2913D10EE0D06840F00200D0600DE0F6
:101C6000D06840F00400D06008E0D06840F0080080
:101C7000D06003E0D06840F01000D06001222068FE
:101C800000F006FF2068A0F18041B1F5803104D05A
:101C9000A0F18041B1F5823103D1416C41F40041A2
:101CA00041642068016841F001010160002010BD1D
:101CB00010B504460029226806D0042909D0082955
:101CC0000CD00C2913D10EE0D06820F00200D060B7
:101CD0000DE0D06820F00400D06008E0D06820F06B
:101CE0000800D06003E0D06820F01000D06000222F
:101CF000206800F0CDFE216841F211139A10A1F185
:101D00008040B0F5803004D0A1F18040B0F5823041
:101D100009D1086A184206D1086A104203D1486CFA
:101D200020F4004048642068016A194206D1016A23
:101D3000114203D1016821F001010160002010BDB2
:101D400070B50446002C04D094F83900002510B179
:101D500006E0012070BD84F83850204600F022F8DB
:101D6000242084F839002068C16821F40051C16042
:101D7000204600F0A3FF2068016921F49041016131
:101D80002068416921F02A0141612068C16841F45D
:101D90000051C160E563202084F8390084F83A00DE
:101DA000002070BD10B586B00068A0F18041B1F58B
:101DB00088411DD10F48016841F40031016000687D
:101DC00000F40030009020200190022002900120B9
:101DD00003900320049007200590074C01A920469A
:101DE000FEF710FF4021019101A92046FEF70AFFEE
:101DF00006B010BD40380240000C02402DE9F84307
:101E000004460D4691461E4694F83A00202802D01A
:101E10000220BDE8F88355B3B9F1000F27D094F83C
:101E20003800012826D0012084F838000027E76315
:101E3000222084F83A00FFF705F88046A4F82C9099
:101E4000A4F82E90E08D00283CD0E08D401EE08567
:101E5000A068B0F5805F10D04346002220212046C4
:101E6000009601F0CDF810B30320BDE8F8830120FF
:101E7000BDE8F8830220BDE8F88343460022202114
:101E80002046009601F0BCF810B10320BDE8F883AD
:101E9000206928B120684068C1B229806D1C0EE01D
:101EA00020684068C0F308012980AD1C07E0206964
:101EB00080B12068406800F07F0005F8010BE08DDC
:101EC0000028C2D1202084F83A0084F8387000201D
:101ED000BDE8F8832068406805F8010BEFE72DE9BD
:101EE000F84304460D4691461E4694F839002028D2
:101EF00002D00220BDE8F8834DB3B9F1000F26D01F
:101F000094F83800012825D0012084F838000027F3
:101F1000E763212084F83900FEF794FF8046A4F897
:101F20002490A4F82690E08CA0B3E08C401EE084BE
:101F3000A068B0F5805F10D0434600228021204683
:101F4000009601F05DF8F0B10320BDE8F8830120B0
:101F5000BDE8F8830220BDE8F883434600228021D3
:101F60002046009601F04CF810B10320BDE8F8833C
:101F700028882168C0F308004860206908B16D1CFA
:101F800005E0AD1C03E0216815F8010B4860E08C0A
:101F90000028CAD14346002240212046009601F085
:101FA0002FF810B10320BDE8F883202084F8390011
:101FB00084F838700020BDE8F883000006A30020F4
:101FC00010491A5C4A600A6812F0400FFBD0401CAE
:101FD000C0B22A28F5D3FEE70D0A456E746572205B
:101FE000486172644661756C745F48616E646C65CB
:101FF000722C2053797374656D2048616C742E0DBA
:102000000A0000000010014070B586B000252A4883
:10201000016841F020010160016801F02001009198
:10202000016841F020010160016801F02001009188
:10203000016841F480710160016801F480710091D0
:10204000016841F010010160016801F01001009188
:10205000016841F010010160006800F0100000907C
:102060000124019402950394144E01A93046FEF711
:10207000C9FD022101910295039401A93046FEF7A2
:10208000C1FDA00201900295039401A90C48FEF73E
:10209000B9FD08200190029503940A4E01A930462B
:1020A000FEF7B0FD102101910295039401A930467D
:1020B000FEF7A8FD06B070BD3038024000140240A3
:1020C0000020024000100240016000210171022244
:1020D00042718271C171704711F0010F01D000216E
:1020E00001710079704770B50446002560790128B8
:1020F0001DD0022811D00125022603281FD0042854
:102100000AD1E0790A30C0B2E0710A2804D320680D
:10211000804750B1A571657170BD20688047002867
:10212000FAD0E5710420607170BD667170BD2068E1
:1021300080470028FAD1E5710320607170BDE07915
:102140000A30C0B2E0710A28F8D32068804708B18D
:10215000657170BDA57166712079401CC0B2207197
:10216000FA28F6D9FA20207170BD00002DE9F0435D
:1021700087B02F48016841F080010160016801F0DB
:1021800080010191016841F080010160016801F066
:1021900080010191016841F480710160016801F4DE
:1021A00080710191016841F002010160006800F056
:1021B000020001901F4F002210213846FEF73BFE1F
:1021C000002220213846FEF736FEDFF86C80002220
:1021D00010214046FEF72FFEDFF8609000227915AF
:1021E0004846FEF728FE1026029601240394022595
:1021F000059502A93846FEF705FD202002900394BC
:10220000059502A93846FEF7FDFC02960394059554
:1022100002A94046FEF7F6FC600202900394059581
:1022200002A94846FEF7EEFC07B0BDE8F0830000C7
:1022300030380240001C02400020024000040240EE
:1022400082B000210C48026842F008020260006877
:1022500000F0080001900A48084A02604FF4E13299
:1022600042608160C16001610C2242618161C16193
:1022700002B0FFF765BD0000303802400044004066
:10228000C001002010B5002206212720FEF756FECF
:10229000BDE810402720FEF745BE000008B500F05D
:1022A000EBFE00210D48026842F4802202600068C3
:1022B00000F4802000900B48094A02604FF4E1329C
:1022C00042608160C16001610C2242618161C16133
:1022D000FFF736FDBDE80840FFF7D4BF40380240A5
:1022E000004800406C020020FEE770477047000085
:1022F0002DE9F04F06462DED048B85B00D46DDF837
:1023000048B090469A467E48805D002803D07D48BC
:10231000805D00287BD07C48C6EBC60900EB8904B1
:1023200006EB46007949049001EB8007002D08DA9E
:10233000FF206070798801227868FEF77CFD6D428D
:1023400006E001206070798800227868FEF773FD4E
:10235000012D68D0002D70D06D480068C00800EED7
:10236000100AB8EE400ADFED6B0A60EE200A00EEBC
:1023700010BAB8EE400A80EE801ABDEEC10A10EE27
:10238000100A206100EE108AF8EE400A9FED621AF2
:1023900081EE200A10EE100AFEF7B1F841EC100BA6
:1023A00000F0B8FE5A48B0EE408AF0EE608A00684D
:1023B000C008FEF778F89FED5A1B53EC112BFDF780
:1023C00091FF9FED599B53EC192BFDF7FDFFFEF795
:1023D000A9F8FEF794F853EC182BFDF783FF53ECA4
:1023E000192BFDF7F1FFFEF76BF8A06000EE108AE5
:1023F000B8EE400ADFED4E0AB2EE041A0BFB0BF00A
:1024000020EE200AC0EE010A00EE100A00E072E0A1
:10241000B8EE400A80EE201ABCEEC10A8DED020A29
:10242000029858B10CE04FF0FF313748616102214A
:1024300000F829104FF47A70A06033E00120029078
:1024400005FB0AF008EB0A01B0FBF1F001900198DE
:1024500008B90120019002990198884203D8019897
:10246000401BE06006E0029800FB08F0B0FBFAF0C9
:102470004042E0602448E16811B94FF0FF31E1606B
:10248000E16829446160A1682269914205DC216903
:10249000A160032100F8291002E0012100F82910B1
:1024A0000020606116490120885522480068416A71
:1024B0000391A168BDF80C200A441F4901EB0614E2
:1024C000616821F00301343142501A486168FFF716
:1024D000B6FB01221948616800F0DAFA0B4804994A
:1024E000002230F82110B86805B0BDEC048BBDE8BF
:1024F000F04FFEF7A0BC05B0BDEC048BBDE8F08F3B
:102500006A0000205E00002094000020C45E0008E5
:102510005800002072D9203C70594443000000004C
:102520006F1283C0CAA1E53F0000000000002440F4
:10253000CF0F493E30020020245E00080004014015
:102540002DE9F04F87B00024A0468C48016841F483
:1025500080710160016801F480710191016841F0AE
:1025600004010160016801F004010191016841F07A
:1025700004010160016801F004010191016841F06A
:1025800040010160016801F040010191016841F0E2
:1025900020010160016801F020010191016841F012
:1025A00004010160016801F004010191016841F03A
:1025B00004010160016801F004010191016841F02A
:1025C00010010160016801F010010191016841F002
:1025D00040010160016801F040010191016841F092
:1025E00040010160016801F040010191016841F082
:1025F00040010160016801F040010191016841F072
:1026000040010160016801F040010191016841F061
:1026100040010160016801F040010191016841F051
:1026200040010160016801F040010191016841F041
:1026300040010160016801F040010191016841F031
:1026400040010160016801F040010191016841F021
:1026500040010160016801F040010191016841F011
:1026600040010160016801F040010191016841F001
:1026700040010160016801F040010191016841F0F1
:1026800040010160016801F040010191016841F0E1
:1026900040010160006800F040000190DFF8E0A018
:1026A00002264FF00109AAF1400B364800EB041056
:1026B00000880290039605960320069002A93248EE
:1026C000FEF7A0FA04EB44070AEB870500226988AD
:1026D0006868FEF7B0FB68880290CDF80C9005960C
:1026E000CDF8188002A96868FEF78CFA3AF827102E
:1026F0000022A868FEF79FFB3AF827000290CDF869
:102700000C900596CDF8188002A9A868FEF77AFA11
:102710001E4800EBC400418802911D490391CDF889
:1027200010900596CDF81880406802A9FEF76AFA65
:102730000BEBC40041880291164D0395CDF8109023
:102740000596CDF81880406802A9FEF75BFA12489A
:1027500000EBC400418802910395CDF810900596D6
:10276000CDF81880406802A9FEF74CFA601CC4B28C
:10277000042C9AD307B0BDE8F08F00003038024037
:10278000C45E0008245E000800200240645E000869
:102790000000311000002110A45E00082DE9F04176
:1027A0008CB0002400252948016841F00201016035
:1027B000006800F002000090FFF7C2FE254EDFF82F
:1027C0009080C6F8008007207060B5604FF6FF77F4
:1027D000F76035613046FEF7AFFF4FF48050089048
:1027E00008A93046FEF7D2FF302001900297022060
:1027F000039008200490059506950795164F1548F7
:1028000007EB04156968FFF753FA01A911486A68D4
:10281000FFF7EAF900224046696800F039F9601CC8
:10282000C4B2042CEBD3002211462E20FEF786FB07
:102830002E20FEF777FB3068416C41F40041416483
:102840000448FEF796FF0CB0BDE8F0814438024022
:102850000004014030020020245E000810B5FEF79D
:10286000F7FABDE8104001F01FB8000030B593B092
:1028700000252348016841F080510160006800F0A4
:10288000805000901F48016841F480410160006859
:1028900000F480400090012006900004079002247C
:1028A0000C9480010D9008200E904FF4A8700F90AA
:1028B00010940720119006A8FEF7FCFC0F20019051
:1028C000029403954FF4A0500490E0020590052176
:1028D00001A8FEF779FBFEF76FFCFEF773FC4FF4DF
:1028E0007A71B0FBF1F0FEF713FF0420FEF702FF50
:1028F00000220F21501EFEF721FB13B030BD000057
:1029000040380240007000400F48016841F47001F7
:1029100001600E48016841F0010101600C4A00218C
:102920001160026822F4102222F080720260031DFE
:10293000084A1A60026822F4802202600648016098
:10294000064958060860704788ED00E000380240EC
:1029500008380240103000240C38024008ED00E036
:1029600010B5184C2068016911F0020F05D06FF006
:10297000020101610020FEF791FF2068016911F05A
:10298000040F05D06FF0040101610120FEF786FFFE
:102990002068016911F0080F05D06FF0080101618E
:1029A0000220FEF77BFF2068016911F0100F07D0AD
:1029B0006FF010010161BDE810400320FEF76EBF0B
:1029C00010BD000030020020F0B402682B4BDFF88D
:1029D000B0C02C4D2C4E2D4C98420AD0B0F1804FF7
:1029E00007D0604505D0A84203D0B04201D0A04234
:1029F00003D122F070024F683A43984228D0B0F1D8
:102A0000804F25D0604523D0A84221D0B0421FD0AE
:102A1000A0421DD0A0F1804CBCF5A03C18D0A0F184
:102A2000804CBCF5A23C13D0A0F1804CBCF5A43C7A
:102A30000ED0A0F1804CBCF5C05C09D0A0F1804C58
:102A4000BCF5E05C04D0A0F1804CBCF5005C05D185
:102A500022F44072D1F80CC04CEA020202608A688B
:102A6000C2620A688262984201D0A04201D109691B
:102A7000016301214161F0BC70470000000001408A
:102A80000004004000080040000C00400004014029
:102A900001238B40D0F820C02CEA03030362036AB1
:102AA00002FA01F1194301627047D0F808C02CF412
:102AB0007F4C42EA0322114341EA0C0181607047D6
:102AC000826822F07002114341F007018160704773
:102AD00010B4026A22F001020262036A4268D0F86E
:102AE00018C02CF0700C2CF0030C0C6844EA0C0C91
:102AF00023F002038C682343A0F18044B4F58034B2
:102B000004D0A0F18044B4F582340DD123F0080341
:102B1000CC68234323F0040322F4807222F4007271
:102B20004C6922438C6922434260C0F818C049684E
:102B30004163036210BC704710B4026A22F01002B5
:102B40000262036A4268D0F818C02CF4E04C2CF4FE
:102B5000407C0C684CEA042C23F020038C6843EA88
:102B60000413A0F18044B4F5803404D0A0F1804473
:102B7000B4F5823410D123F08003CC6843EA041307
:102B800023F0400322F4806222F400624C6942EA9E
:102B900084028C6942EA84024260C0F818C0496825
:102BA0008163036210BC704710B4026A22F4807221
:102BB0000262036A4268D0F81CC02CF0700C2CF042
:102BC000030C0C6844EA0C0C23F400738C6843EA91
:102BD0000423A0F18044B4F5803404D0A0F18044F3
:102BE000B4F5823410D123F40063CC6843EA0423A3
:102BF00023F4806322F4805222F400524C6942EAAA
:102C000004128C6942EA04124260C0F81CC0496890
:102C1000C163036210BC704710B4026A22F4805290
:102C20000262D0F820C04268C36923F4E04323F471
:102C300040730C6843EA04232CF4005C8C684CEA73
:102C4000043CA0F18044B4F5803404D0A0F1804469
:102C5000B4F5823404D122F480424C6942EA8412F1
:102C60004260C36149680164C0F820C010BC70476D
:102C7000036AD0F820C02CF0010CC0F820C0D0F8B6
:102C800018C02CF0F00C4CEA021223F00A0319438E
:102C9000826101627047036A23F010030362D0F877
:102CA00018C0036A2CF4704C4CEA023223F0A003E3
:102CB00043EA011182610162704700002DE9F04191
:102CC00004462068016921F44051E2681143016122
:102CD0002068C16821F4037121F414412369A268BA
:102CE000D4F81CC01A43636943EA0C031A43114326
:102CF000C1602068416921F44071A26911434161BA
:102D0000E069BC4ABC49BD4D3226B0F5004F5ED0EB
:102D10002068884202D0904240F01281FEF76EFA9D
:102D200000EBC00101EB001061688900B0FBF1F716
:102D3000FEF764FA00EBC00101EB00106168890046
:102D4000B0FBF1F0A5FB001040096FF018014843FB
:102D500007EB800006EB0010A5FB0010400900F017
:102D6000F007FEF74BFA00EBC00101EB00106168C1
:102D70008900B0FBF1F0A5FB0010400907EB00173C
:102D8000FEF73CFA00EBC00101EB0010616889001E
:102D9000B0FBF1F8FEF732FA00EBC00101EB0010D6
:102DA00061688900B0FBF1F0A5FB001040096FF0ED
:102DB0001801484308EB800006EB0010A5FB00104B
:102DC0002168C0F3431038448860BDE8F081206872
:102DD000884201D0904259D1FEF710FA00EBC001B1
:102DE00001EB001061684900B0FBF1F0A5FB001099
:102DF00040090701FEF702FA00EBC00101EB0010E9
:102E000061684900B0FBF1F8FEF7F8F900EBC0018A
:102E100001EB001061684900B0FBF1F0A5FB001068
:102E200040096FF01801484308EB800006EBC00032
:102E3000A5FB0010400900F0F80007EB4007FEF783
:102E4000DDF900EBC00101EB001061684900B0FB47
:102E5000F1F8FEF7D3F900EBC00101EB0010616857
:102E60004900B0FBF1F0A5FB001040096FF018011C
:102E7000484308EB800006EBC000A5FB001021686A
:102E8000C0F3421038448860BDE8F081FEF7A0F935
:102E900000EBC00101EB001061684900B0FBF1F0EC
:102EA000A5FB001040090701FEF792F900EBC001F5
:102EB00001EB001061684900B0FBF1F8FEF788F9FA
:102EC00000EBC00101EB001061684900B0FBF1F0BC
:102ED000A5FB001040096FF01801484308EB800083
:102EE00006EBC000A5FB0010400900F0F80007EB5E
:102EF0004007FEF76DF900EBC00101EB00106168BF
:102F00004900B0FBF1F8FEF763F900EBC00101EBFB
:102F1000001061684900B0FBF1F0A5FB001040090A
:102F20006FF01801484308EB800006EBC000A5FBDA
:102F300000102168C0F3421038448860BDE8F08179
:102F4000FEF746F900EBC00101EB00106168890053
:102F5000B0FBF1F7FEF73CF900EBC00101EB00100C
:102F600061688900B0FBF1F0A5FB001040096FF02B
:102F70001801484307EB800006EB0010A5FB00108A
:102F8000400900F0F007FEF723F900EBC00101EB68
:102F9000001061688900B0FBF1F0A5FB001040094A
:102FA00007EB0017FEF714F900EBC00101EB00106E
:102FB00061688900B0FBF1F8FEF70AF900EBC00187
:102FC00001EB001061688900B0FBF1F0A5FB001077
:102FD00040096FF01801484308EB800006EB001031
:102FE000A5FB00102168C0F3431038448860BDE899
:102FF000F081000000140140001001401F85EB51DA
:103000002DE9F0410446069D884617461E46206875
:10301000006838EA000020D00020B84227D1B5F17E
:10302000FF3F1CD025B1FDF70DFF801BA84216D92C
:103030002068C16821F4D071C1602068416921F025
:1030400001014161202084F8390084F83A00002011
:1030500084F838000320BDE8F0810120DDE7206816
:10306000006838EA000005D00020B842D7D0002020
:10307000BDE8F0810120F8E710B586B0104801687E
:1030800041F008010160006800F0080000904FF472
:103090008070019002200290012003900320049090
:1030A00007200590074C01A92046FDF7ABFD6115EF
:1030B000019101A92046FDF7A5FD06B010BD000055
:1030C00030380240000C0240FEE700000FB4054B10
:1030D00010B503A9044A029800F06EF810BC5DF820
:1030E00014FB000091360008840100200FB4084B47
:1030F00010B504A902AA039800F05EF8044602A9DC
:10310000002000F08AFA204610BC5DF814FB000095
:103110001B36000800B52DED048BB0EE409AF0EEA2
:10312000609A83B051EC190BFDF7EDFA41EC180BE6
:1031300018EE100A18EE901A8DED008B002818BFBB
:103140000120084320F00040C0F17F6000F1E04022
:10315000C00F14D019EE101A19EE900A8DED009BD5
:10316000002918BF0121084320F00040C0F17F6012
:1031700000F1E040C00F04BF012000F017F8B0EEEE
:10318000480A03B0F0EE680ABDEC048B00BD02E013
:1031900008C8121F08C1002AFAD1704770470020E2
:1031A00001E001C1121F002AFBD1704701490860EC
:1031B00070470000900100202DE9FF4F8DB00F46B1
:1031C0000546002606E025280BD0DDE90F129047C2
:1031D0006D1C761C28780028F5D111B03046BDE86A
:1031E000F08F0024A246A1460122EC4900E00443EE
:1031F00015F8013F203B02FA03F00842F7D1287886
:103200002A2810D06FF02F022878A0F13001092968
:1032100014D80AEB8A0102EB410144F0020400EBEE
:10322000010A6D1CF0E701CF5FEA000A03D544F400
:103230000054CAF1000A44F002046D1C28782E28BC
:1032400017D115F8010F44F004042A280ED06FF0AE
:103250002F022878A0F1300109290AD809EB890149
:1032600002EB410100EB01096D1CF2E757F8049BEA
:103270006D1C28786C280FD006DC4C2817D06828E5
:103280000DD06A2814D104E0742810D07A280FD108
:103290000DE044F400140AE044F4801401E044F426
:1032A00040146978814202D104F580146D1C6D1CB4
:1032B0002A786E2A1FD00CDC632A31D004DC002A65
:1032C0008BD0582A11D1A3E0642A68D0692A0CD186
:1032D00065E0732A2ED004DC6F2A73D0702A04D1E3
:1032E0009BE0752A6FD0782A6ED01046DDE90F1268
:1032F0009047761C50E1C4F30250022806D0032800
:1033000009D0042801CF09D0066045E101CFF117AB
:10331000C0E9006140E101CF06803DE106703BE17C
:1033200017F8040B8DF8000000208DF80100EB4623
:10333000012003E057F804BB4FF0FF3061074FF066
:10334000000102D40DE008F10101884649450FDA79
:103350008045F8DB1BF808100029F4D108E008F1DB
:10336000010188468142FADB1BF808100029F6D1DA
:10337000DDE90F23AAEB08008146214600F036F96B
:10338000304400EB080604E0DDE90F121BF8010BE6
:103390009047B8F10108F7D221464846F7E00A21E4
:1033A000C4F302534FF0000B0891022B04D001CF5D
:1033B000C117032B09D00AE0FF1D27F00707F7E824
:1033C000020108E032E01FE020E000B2C117042B48
:1033D00001D140B2C117031E71F1000307DA4FF0AB
:1033E000000CD0EB0C006CEB01012D2302E0230557
:1033F00004D52B238DF82430012303E0E30701D00B
:103400002023F7E7984658E00A2110E010210EE04B
:1034100010204FF0000B08900CE010214FF0000B33
:1034200044F004044FF00809089103E008214FF02C
:10343000000B0891C4F30253022B04D001CF0021EA
:10344000032B06D006E0FF1D27F00707F7E802016F
:1034500003E080B2042B00D1C0B24FF00008230774
:103460002BD5702A07D0DDF820C08CF0100C5CEA58
:103470000B0C05D00EE040238DF82430012308E02A
:1034800050EA010306D030238DF824308DF8252032
:1034900002239846DDF820C08CF0080C5CEA0B0C87
:1034A0000BD150EA010301D1630706D530238DF813
:1034B00024304FF00108A9F10109582A04D038A29C
:1034C0000B9208AA0A920BE03AA2F9E75B46089A27
:1034D000FDF744F80B9B9B5C0A9A521E0A921370EC
:1034E00050EA0102F2D10A98ADEB000000F1200B86
:1034F000600702D524F4803401E04FF00109D9457A
:1035000002DDA9EB0B0000E0002000EB0B014144C1
:103510000890AAEB010AE00306D4DDE90F23214657
:10352000504600F063F806444FF0000908E009A98E
:1035300011F80900DDE90F12904709F10109761C25
:10354000C145F4DBE0030CD5DDE90F2321465046ED
:1035500000F04CF8064404E0DDE90F1230209047FB
:10356000761C0899481E08900029F5DC08E00A98A6
:103570000A990078491C0A91DDE90F129047761CE0
:10358000BBF10001ABF1010BF1DC21465046DDE956
:103590000F2300F019F806446D1C1BE609280100F2
:1035A00030313233343536373839616263646566B9
:1035B000000000003031323334353637383941427B
:1035C00043444546000000002DE9F0410446002533
:1035D0001E461746880404D405E039462020B0472B
:1035E0006D1C641EF9D52846BDE8F0812DE9F04137
:1035F000044600251E469046C80301D5302700E04A
:103600002027880404D505E041463846B0476D1CA4
:10361000641EF9D52846BDE8F0810A68531C0B608A
:103620001070704770B50546002D05D0154E3068F6
:10363000854209D1002070BD102080F31188BFF3AE
:103640004F8FBFF36F8FFEE700F038FF6C6900F01B
:1036500055FF306C844202D0706C844201D102204C
:1036600070BD0948844205D1A86A08B1022070BD26
:10367000032070BD0548844202D00CB1012070BD0A
:10368000042070BD04010020C8030020B403002002
:1036900013B54FF6FF73012269460348FEF71FFC7E
:1036A000009802B010BD0000C0010020002801D029
:1036B000C06870474FF0FF307047000010B50446F7
:1036C000002C08D06068FFF7F9FF03A02168FFF71E
:1036D000FDFCA068F3E710BD252378200000000062
:1036E00070B505460C46002C10D02068A8422ADD93
:1036F00028466168FFF7F4FF606088B1C268A1687E
:1037000089B1C968511A022910D03DE0102000F09B
:1037100095F80446256000216160A160E16033E016
:103720004FF0FF32EBE74FF0FF31EBE70068A842C4
:1037300004DD204600F03CF8044625E0204600F079
:103740005DF8044620E01FDA2846A168FFF7C8FFAD
:10375000A06038B1C268616839B1C968511A0229DC
:1037600006D011E04FF0FF32F5E74FF0FF31F5E7FB
:103770000068A84204DA204600F0D9FD044603E0C0
:10378000204600F0C9FD04466068FFF78FFF014640
:10379000A068FFF78BFF814203DD6068FFF786FFBB
:1037A00002E0A068FFF782FF401CE060204670BD89
:1037B00000B501464A689068486091604868FFF724
:1037C00075FF03468868FFF771FF834203DD486891
:1037D000FFF76CFF02E08868FFF768FF401CC860D5
:1037E0005068FFF763FF0346C868834202DD5068F4
:1037F000FFF75CFF401CD060104600BD10B50446CA
:10380000606800F094FD60602046BDE81040FFF75E
:10381000CFBFFDF725FBFFF729F8FEF711FDFEF7F7
:103820003DFDFEF7A3FCFEF7EFFBFEF7B7FFFDF74C
:1038300091F8FDF705F801F0B7F9FEE7F0B50B30A8
:10384000154D20F007010024144A0FE003688B4255
:103850000BD38B4205D95E1A43184768C3E900674A
:1038600000E04368136002C004E0021D10680028F5
:10387000ECD12046002802D1286808B10020F0BD14
:10388000064A07481060074A121A22F00702C0E9E8
:10389000002401202860D7E78C0100208801002047
:1038A0000C9401200896012010B502F0DFF80128E1
:1038B00003D0BDE8104001F009BE10BD10B50446AC
:1038C000002C08D004A02168FFF700FC6068FFF717
:1038D000F5FFA068F3E710BD252378200000000065
:1038E00010B504460846002C1CD09AB1012A17D006
:1038F0000DA302460EA02168FFF7E8FB4FF0FF3250
:1039000021686068FFF7ECFF2168A068BDE81040FF
:103910000122E5E702460CA02168FFF7D7FBEDE79F
:103920000EA3E6E710BD00006C65667400000000A1
:103930002523782069732025237827732025367363
:10394000206368696C640A002523782069732072FB
:103950006F6F74A3AC252378200A00007269676832
:10396000740000002DE9F04104460F46194EF56839
:103970003068001D00F001FD48B93068012190F861
:103980002C0001FA00F0316921EA00003061B4F145
:10399000FF3F07D137B13068BDE8F041011D0E4847
:1039A00000F07FBD2C4430684460AC4206D23068E1
:1039B000011D706CBDE8F04100F058BD3068011D7C
:1039C000306C00F053FDB06A844200D2B462BDE8AE
:1039D000F081000004010020C803002070B50446F7
:1039E00000F06CFD1D4DA868401CA860286810B14F
:1039F000686938B10CE02C60A868012808D100F093
:103A000083F905E02868E16AC06A884200D82C6022
:103A1000686A401C68626064E06A01212A6981402A
:103A2000114329610E4900EB800001EB8000211D4C
:103A300000F037FD00F062FD686900280CD02868AE
:103A4000E16AC06A884207D206494FF08050086098
:103A5000BFF34F8FBFF36F8F70BD000004010020D4
:103A6000EC02002004ED00E010B500F027FD0D4C45
:103A7000206898B90C4800F0EBFC0C4800F0E8FC1A
:103A80000948E0601430206100221021142001F068
:103A900033FD206010B106A100F0AEFDBDE810407E
:103AA00000F02CBD4C010020DC030020F0030020BE
:103AB000546D72510000000070B5134D6868002805
:103AC00020D0124E01F0AEF8306820B1002402F090
:103AD000D3F814B113E00124F9E700F0EFFCF0682B
:103AE000C468201D00F049FCA868401EA8606868F2
:103AF000401E686000F002FD204600F052F8686841
:103B00000028DFD170BD000004010020B4030020B4
:103B10000B46026C002A0CD0C1681144C160D0F879
:103B200004C0614501D30168C160C1681846FCF753
:103B3000A5BB70472DE9F041044616460027A56B4A
:103B4000226C002A10D0C6B1E068FCF797FBE16850
:103B5000206C091AE1602268914202D26168081A59
:103B6000E060022E16D017E02068A8B9606801F066
:103B7000F9FF0746002060600EE0A068FCF77EFBBE
:103B8000216CA0680844A0606168884204D3206862
:103B9000A06001E005B16D1E681CA0633846BDE859
:103BA000F08110B50446206B00F0BEFC2046BDE855
:103BB000104000F0B9BC00000749CA68116800292C
:103BC00004D00021016019B1002070470121F9E7FC
:103BD000D0680068704700004C0100204FF4C831E5
:103BE000104810F0070F06D0C01D20F007000D4947
:103BF000411AC1F5C8310C4A1060002353600144DA
:103C0000083921F00701103A11604B600B600B1A64
:103C1000436001604068906050604FF00040D060A9
:103C2000704700000404002070010020074E4FF090
:103C30008054074DFFF740FF30680128FAD92C6007
:103C4000BFF34F8FBFF36F8FF4E70000EC0200204B
:103C500004ED00E070B51D46049C002909D02260E7
:103C6000E06321640121204601F032FD84F84C50CC
:103C700070BD2460F4E72DE9F05F82460B9F0A9D3A
:103C80000C9C0E4690469B464FEA8801A522206B6D
:103C9000FCF706FB206BA8F1010100EB810020F08E
:103CA00007094FF0000800202218315C82F8341018
:103CB000315C11B1401C1028F6D384F84380072DE5
:103CC00000D30625E562E564C4F85080201D00F0AD
:103CD000CAFB04F1180000F0C6FB2461C5F107001F
:103CE000A0616462C4F85480C4F8588084F85C8091
:103CF0005A465146484600F0F9FA2060002F00D09D
:103D00003C60BDE8F09F000070B500240F4D04EB4F
:103D1000840005EB800000F09BFB641C072CF6D3AD
:103D20000B4800F095FB0B4800F092FB0A4800F0AE
:103D30008FFB0A4800F08CFB094800F089FB09481A
:103D4000034901641431416470BD0000EC0200209D
:103D5000780300208C030020A0030020B40300207F
:103D6000C80300200401002010B4144900E01146EB
:103D70000A688242FBD34B6803EB010C844503D1F4
:103D800040681844486008460C68D0F804C00CEB42
:103D90000003A3420CD10A4B1B689A4206D052681A
:103DA000624442600A681268026002E0036000E058
:103DB0000260814200D0086010BC70477001002092
:103DC0006001002010B5002441600061DFF838C0B8
:103DD00091420BD8D11A8269914201D3012410E09B
:103DE000011DDCF8100000F041FB0AE09A4203D20A
:103DF000994201D3012404E0011DDCF80C0000F01D
:103E000035FB204610BD00004C01002010B50446D3
:103E100000F054FBA06B20B1002400F06FFB2046A3
:103E200010BD0124F9E710B5044600F047FBA06B74
:103E3000E16B884201D1012400E0002400F05EFB28
:103E4000204610BD2DE9F04780460C4691460025DE
:103E50002068002823D060684068606004F108068C
:103E6000B04201D1416861606068C7686068D0F89D
:103E700004C0C4F804C0B44502D1DCF80410616089
:103E80006068D0F80CA005EBC50008EB80014B463C
:103E90000122504600F012FC6D1CBA45E6D12846BE
:103EA000BDE8F087F8B505460E461448C068C068FE
:103EB000C468201D00F061FAE069012810D1A069F2
:103EC0002B46411932462046FFF77CFF40B10020C7
:103ED0000346014600902A46204601F05DFF28B1C6
:103EE000616A01B02046BDE8F0400847102080F329
:103EF0001188BFF34F8FBFF36F8FFEE74C01002097
:103F000030B587B0324D00231A4602A9286801F067
:103F100015FB00285AD00298002803DA039A059965
:103F2000049890470298002848DB049C606910B10F
:103F3000201D00F022FA01A800F094F80246029831
:103F40000A283BD2DFE800F00505053A26370505CB
:103F50003A260398A169034601442046FFF732FF41
:103F600000B3616A20468847E069012826D1002015
:103F700000900398A169002342181946204601F0D9
:103F80000BFF78B9102080F31188BFF34F8FBFF378
:103F90006F8FFEE70398A06128B181181346204671
:103FA000FFF710FF0AE0102080F31188BFF34F8F56
:103FB000BFF36F8FFEE7204600F0B6FA00231A46E3
:103FC00002A9286801F0BAFA0028A4D107B030BDD0
:103FD0004C010020F8B505460C4600F023FE68466B
:103FE00000F040F80646009810B101F045FEF8BD1B
:103FF00044B9B54206D801F03FFE31462846FFF7E6
:1040000051FFF8BD0C481CB10169096891B1002449
:10401000A91B2246006800F003FB01F02DFE0028DA
:10402000EFD106494FF080500860BFF34F8FBFF3C8
:104030006F8FF8BD0124EBE74C01002004ED00E098
:104040000749086C0068002805D0086CC068C06883
:104050004068886270474FF0FF3088627047000008
:104060000401002070B5044601F00EFD0546074E20
:10407000B068854204D200F00BF80120206001E016
:1040800000202060B560284670BD00004C01002073
:10409000F8B51B4EF0680068002824D00027F068AF
:1040A000C0680568C468201D00F067F9616A204691
:1040B0008847E069012812D1A0692844A84206D99E
:1040C00060602461211DF06800F0D0F907E0002352
:1040D0002A4619462046009701F05EFE40B1F0687E
:1040E00000680028DBD1F0683169F1603061F8BD0B
:1040F000102080F31188BFF34F8FBFF36F8FFEE75F
:104100004C01002000210278A52A04D1401C491C42
:104110000278A52AFAD0880880B270470A48406819
:10412000B0F1FF3F07D0102080F31188BFF34F8F0D
:10413000BFF36F8FFEE7102080F31188BFF34F8F1E
:10414000BFF36F8FFEE700007801002082B001A866
:10415000FFF732FD0199FFF73DFFFFF7D1FEF6E7CC
:1041600070B5044600F0AAF994F94550002D0CDD15
:10417000606A50B104F1240001F042FD08B100F082
:10418000CDFB681E45B2002DF2DC4FF0FF3684F8FF
:10419000456000F0B3F900F091F994F94450002D16
:1041A0000CDD206950B104F1100001F029FD08B1C7
:1041B00000F0B4FB681E45B2002DF2DC84F84460C8
:1041C000BDE8704000F09AB910B504462046FCF7EF
:1041D00080F82046FCF776F80F2804D220212154DD
:1041E000401C0F28FBD300212154204410BD0000A7
:1041F0002DE9F0410546002600F014FD334F3868E4
:1042000008B9FFF7EBFCF86805424ED19DB10835BF
:1042100015F0070F0FD005F00700C0F108000544A6
:1042200015F0070F07D0102080F31188BFF34F8FD0
:10423000BFF36F8FFEE7002D37D07868854234D802
:1042400023490846046801E0214604466068A84204
:1042500002D220680028F7D13868844225D0086847
:1042600000F10806206808606068411B10290FD91A
:10427000601910F0070F07D0102080F31188BFF3EA
:104280004F8FBFF36F8FFEE741606560FFF76CFDF6
:1042900061687868401A7860BA68904200D2B86065
:1042A000F868084360600020206001F0E5FC16F02B
:1042B000070F07D0102080F31188BFF34F8FBFF393
:1042C0006F8FFEE73046BDE8F081000060010020FE
:1042D0007001002004490868002803D00868026DB6
:1042E000521C02650868704704010020001F4FF04F
:1042F00080730360001F21F001010160001F054968
:10430000016014380260001F6FF002010160203864
:10431000704700001D41000810B50446A068FFF773
:1043200047FAA0602046BDE81040AFF3008000B51A
:1043300001468A685068886051604868FFF7B6F99E
:1043400003468868FFF7B2F9834203DD4868FFF748
:10435000ADF902E08868FFF7A9F9401CC860506811
:10436000FFF7A4F90346C868834202DD5068FFF7EF
:104370009DF9401CD060104600BD01694368826809
:104380009A60836842685A604A68824201D18268B2
:104390004A60002202610868401E08607047000001
:1043A0002DE9F04706460B4617460024072500F086
:1043B00039FCDFF88C80D8F8080083423AD3DFF864
:1043C00084906D1E05EB850009EB800104EBC400B1
:1043D00006EB80000122FFF735FD0444002DF0D1EB
:1043E00004EBC40006EB80000222D8F84010FFF76F
:1043F00029FD044404EBC40006EB80000222D8F837
:104400004410FFF71FFD044404EBC40006EB8000DA
:1044100004220D49FFF716FD044404EBC40006EB2B
:10442000800003220949FFF70DFD044417B1D8F8B5
:104430003C00386001F020FC2046BDE8F087000019
:1044400004010020EC020020B4030020C803002077
:1044500000F1080141604FF0FF328260C1600161EC
:1044600000210160704700210161704710B4D1F84C
:1044700000C0BCF1FF3F02D000F1080202E0026977
:1044800004E01A4653681C686445FAD953684B60C7
:1044900099608A60516008610168491C016010BC24
:1044A000704742684A6093688B6093685960916076
:1044B00008610168491C016070470000102080F30A
:1044C0001188BFF34F8FBFF36F8F0A494868401CB4
:1044D000486001280CD10848006810F0FF0F07D091
:1044E000102080F31188BFF34F8FBFF36F8FFEE76B
:1044F000704700007801002004ED00E00949486899
:10450000002806D0401E4860002801D180F31188A1
:104510007047102080F31188BFF34F8FBFF36F8F68
:10452000FEE700007801002070B5002827D0A0F138
:104530000804134D6068E968084207D1102080F331
:104540001188BFF34F8FBFF36F8FFEE722683AB138
:10455000102080F31188BFF34F8FBFF36F8FFEE7FA
:104560008843606000F05EFB6068696808446860CA
:104570002046FFF7F9FBBDE8704001F07DBB70BD40
:104580006001002006484FF47A710068B0FBF1F03A
:10459000411E4FF0E020416107210161704700009A
:1045A0005800002010B5FBF753FE114910280ED318
:1045B00000F1E02090F8F0030A78904207D2102032
:1045C00080F31188BFF34F8FBFF36F8FFEE7094869
:1045D0000068896800F4E060884207D9102080F301
:1045E0001188BFF34F8FBFF36F8FFEE710BD000040
:1045F000780100200CED00E00022084B53F832C097
:10460000BCF1000F03D0521C082AF7D3704743F8BF
:10461000321003EBC201486070470000AC0200207A
:1046200070B504460D461646FFF748FF94F944005E
:10463000B0F1FF3F4FF0000001D184F8440094F93D
:104640004510B1F1FF3F01D184F84500FFF756FF57
:10465000A06B28B93246294604F1240000F07EF907
:104660002046BDE87040FFF77BBD000010B5024654
:104670000020002A12D00F48006B38B1102080F3C0
:104680001188BFF34F8FBFF36F8FFEE700F0CAFAB8
:1046900000211046FFF766F901F0EEFA002807D175
:1046A00005494FF080500860BFF34F8FBFF36F8F05
:1046B00010BD00000401002004ED00E02DE9F041F0
:1046C00007460C4690461E46002F0ED03D462560FC
:1046D00005F134006060E86A2061286BE061686C75
:1046E000A060207B032803D00AE012480568EEE7AB
:1046F00000F098FAA86A08B10220207301F0BCFA11
:10470000E86C6061686DA061052E01D0267303E03E
:104710003846FEF787FF2073B8F1000F05D0286BED
:10472000FFF7F0FC2084BDE8F08100202084BDE884
:10473000F08100000401002070B584B00646002519
:104740003570294881680391806800EBC0008000C3
:10475000FFF74EFD0446200043D001AA0399FFF75E
:104760001FFE039021490198A1FB00104009019010
:10477000002833D00295039800282FD90298019A77
:1047800000EBC00004EB80008169B1FBF2F54168E9
:104790003046FFF719FD06465DB102982B4600EB47
:1047A000C00004EB800012A182693046FEF79EFC37
:1047B00009E0029811A100EBC00004EB80008269BF
:1047C0003046FEF793FC3046FBF77CFD064402982A
:1047D000401C0290039902988842CFD32046FFF7ED
:1047E000A3FE04B070BD0000040100201F85EB5142
:1047F0000925750909257525250D0A00092575095D
:10480000093C3125250D0A0082B00B4C0B4D0023CD
:104810004FF4967201A9A06A00F090FE012804D01E
:1048200020212846FCF703FBF1E79DF8041004A0C3
:10483000FEF74CFCEBE7000000000020001C0240EB
:10484000756351756575654D736756616C75652047
:104850003D202523780D0A0070B584B0064600245B
:104860003470294881680391806800EBC0008000A3
:10487000FFF7BEFC0546280044D000220399FFF74D
:104880008FFD03900294039800282DD9029901EB23
:10489000C10005EB8002117B01292BD002292BD00E
:1048A00003292BD004292BD0002430465168FFF770
:1048B0008BFC0646029901EBC10005EB80010A8CD6
:1048C0008868009201900B69224610A13046FEF7DD
:1048D0000DFC3046FBF7F6FC06440298401C0290A3
:1048E000039902988842D1D304B02846BDE87040AD
:1048F000FFF71ABE5224D8E74224D6E75324D4E760
:104900004424D2E704B070BD0401002009256309E6
:1049100025750925750925750D0A00000149012035
:10492000C86170470401002010B50C4600280BD068
:10493000094A126802F11801FFF798FD2046BDE808
:1049400010400121FFF70EB8102080F31188BFF34B
:104950004F8FBFF36F8FFEE70401002070B50D4647
:10496000144600280DD00B4909681831FFF799FD4E
:104970000CB14FF0FF3521462846BDE87040FEF7E8
:10498000F1BF102080F31188BFF34F8FBFF36F8FFB
:10499000FEE700000401002070B5044600283BD06B
:1049A0001E4DE06A2968C96A884235D2A06910F0B4
:1049B000004F04D12868C06AC0F10700A061E06A16
:1049C000174E00EB8000616906EB8000814220D128
:1049D000201DFFF7D2FC012158B9E06A00EB8002EC
:1049E00056F822202AB92A6901FA00F022EA0000CA
:1049F00028612868C06AE0622A6981401143296100
:104A000000EB800006EB8000211DBDE87040FFF741
:104A100048BD2868C06AE06270BD00000401002043
:104A2000EC02002082B0244C244D254E0023C822E5
:104A300001A9606A00F082FD012805D04FF40071E1
:104A40003046FCF7F4F9F1E7019801781DA0FEF774
:104A50003DFB0198417E23A0FEF738FB0198817E43
:104A600025A0FEF733FB0198C17E28A0FEF72EFBA0
:104A70000198017F2AA0FEF729FB0198417F2DA014
:104A8000FEF724FB0198817F2FA0FEF71FFB019802
:104A9000C17F32A0FEF71AFB019890F8201034A0D5
:104AA000FEF714FB206B0090A36B626B294603207A
:104AB000FDF71EFCBAE700000000002000EE020037
:104AC00000040240525F617869733A2D3E75634D70
:104AD0006573736167654944203D202523780D0A7D
:104AE00000000000525F617869735B305D203D20FB
:104AF0002523780D0A000000525F617869735B31ED
:104B00005D203D202523780D0A000000525F61786A
:104B100069735B325D203D202523780D0A0000007B
:104B2000525F617869735B335D203D202523780DEA
:104B30000A000000525F617869735B345D203D209C
:104B40002523780D0A000000525F617869735B3598
:104B50005D203D202523780D0A000000525F61781A
:104B600069735B365D203D202523780D0A00000027
:104B7000525F617869735B375D203D202523780D96
:104B80000A000000002805D006490A6A0260C968C8
:104B900041607047102080F31188BFF34F8FBFF33F
:104BA0006F8FFEE70401002010B582B01848002482
:104BB00001902346802217A10094184800F022FF9C
:104BC000012801D101F0BEF801280AD0B0F1FF3F61
:104BD0001BD1102080F31188BFF34F8FBFF36F8F6D
:104BE000FEE7102080F31188BFF34F8FBFF36F8F64
:104BF0000B484FF0FF31816201214161C460C46301
:104C000002B0BDE8104000F0E7BB02B010BD0000EC
:104C10003001002049444C45000000002D3C0008B4
:104C2000040100200248016B491C01637047000029
:104C3000040100201B4B186B002802D00120D86112
:104C400070470020D861D86B98635A6B904205D9A1
:104C50001968821AD1F854C062444A6558631869C9
:104C6000B0FA80F0C0F11F000F4900EB800051F84E
:104C7000202072B101EB800041684968416000F179
:104C80000802914201D1496841604068C0681860DB
:104C90007047102080F31188BFF34F8FBFF36F8FE1
:104CA000FEE7000004010020EC020020ADF5007DCD
:104CB000AF487E9000270770477047724774477669
:104CC000AC49AD48FDF700FAAC49AD48FDF7FCF939
:104CD000AC49AD48FDF7F8F9ACA0FEF7F7F9DFF8FD
:104CE000D0B2DFF8D082B44DDFF8D0A24FF08059B7
:104CF000A148FDF7F8F9A248FDF7F5F9A248FDF73C
:104D0000F2F94FF6FF730722AA49AD48FDF776F88E
:104D100000219948FDF7E0F900281AD0A9A0FEF774
:104D2000D5F9B5A0FEF7D2F901A8FFF795FD01A9C5
:104D3000BDA0FEF7CBF9BEA0FEF7C8F901A8FFF7AA
:104D4000FBFC01A9B8A0FEF7C1F901218A48FDF7D3
:104D5000C3F998F80000A12840D188F800707E9827
:104D60000178491C017098F80110417098F8021000
:104D7000817098F80310C17098F80410017198F8C8
:104D80000510417198F80610817198F80710C171EB
:104D900098F808100172082600247E98E96A2044D9
:104DA0004078FEF79DFCE862601CC4B2B442F4D3C4
:104DB00000230A227EA9A86900F0D2FC012804D0B1
:104DC00010215846FCF733F804E000221021584621
:104DD000FCF731F801216C48FDF77EF998F80000E6
:104DE000A22833D188F800707E980178491C0170A0
:104DF00098F80010417298F80110817298F802102A
:104E0000C17298F80310017398F80410417398F870
:104E10000510817398F80610C17398F80710017493
:104E200000230A227EA9E86900F09AFC012804D038
:104E300020215846FBF7FBFF04E0002220215846C2
:104E4000FBF7F9FF01215048FDF746F998F80000FB
:104E5000A32833D188F800707E980178491C01702E
:104E600098F80010417498F80110817498F80210B5
:104E7000C17498F80310017598F80410417598F8FA
:104E80000510817598F80610C17598F8071001761D
:104E9000002314227EA9286A00F062FC012804D0B5
:104EA00010216E48FBF7C3FF04E0002210216B487D
:104EB000FBF7C1FF01213448FDF70EF998F8000017
:104EC000A42836D188F800707E980178491C0170BA
:104ED00098F80010417698F80110817698F8021041
:104EE000C17698F80310017798F80410417798F884
:104EF0000510817798F80610C17798F8071080F8A8
:104F00002010002314227EA9686A00F029FC0128E1
:104F100005D04FF400715248FBF789FF05E00022ED
:104F20004FF400714E48FBF786FF01211648FDF74C
:104F3000D3F898F80000A52815D1009798F801003B
:104F40007F9000236A467FA9A86A00F0C1FC009800
:104F500028B1CAF80090BFF34F8FBFF36F8F0121C4
:104F60000948FDF7B9F81420FFF780FBC0E6000000
:104F70009D010020D50A00083C000020ED0A000831
:104F800044000020050B00084C000020B0B4CFC244
:104F90004B455931A1A24B455932BACD4B455933F6
:104FA000D6B4D0D0B2BBCDACB5C4C8CECEF10A0019
:104FB000001C0240940100200000002004ED00E0ED
:104FC0006C0200203D3D3D3D3D3D3D3D3D3D3D3D77
:104FD0003D3D3D3D3D3D3D3D3D3D3D3D3D3D3D3D01
:104FE0003D3D3D3D3D3D3D3D3D3D3D3D3D3D3D3DF1
:104FF0003D3D3D3D3D0D0A00C8CECEF1C3FB202016
:1050000020202020C8CECEF1D7B4CCAC20D3C5CF41
:10501000C8BCB6202020CAA3D3E0D5BB20C8CECEC2
:10502000F1D0F2BAC50D0A0025730D0A0000000088
:105030000D0AC8CECEF1C3FB20202020202020D492
:10504000CBD0D0BCC6CAFD2020202020202020208C
:10505000CAB9D3C3C2CA0D0A000000000020024032
:105060000004024082B01D4C1D4D1E4E0023C8227C
:1050700001A9A06900F062FA012804D0102130468D
:10508000FBF7D5FEF2E70198017817A0FEF71EF8AE
:1050900019A0FEF71BF8E06A00220168FEF720FC69
:1050A000E06AFEF703FB401CC1B218A0FEF70EF841
:1050B0001AA0FEF70BF8E06AFEF700FC1AA0FEF754
:1050C00005F8E06AFEF7FAFA206B0090A36B626BBA
:1050D00029460020FDF70CF9C8E700000000002079
:1050E0000012FDFF001C0240585F617869733D208B
:1050F0002523780D0A0000003D3DCAF7B5C4CFEA6C
:10510000CFB8D0C5CFA23A0A000000000ACAF7B54E
:10511000C4B8DFB6C878683D25640A000ACFC8D095
:10512000F2B1E9C0FA3A20000AD6D0D0F2B1E9C013
:10513000FA3A200082B0234C234D244E0023C8228B
:1051400001A9E06900F0FAF9012804D020213046D5
:10515000FBF76DFEF2E7019801781DA0FDF7B6FFA1
:105160000198417A1EA0FDF7B1FF0198817A21A034
:10517000FDF7ACFF0198C17A23A0FDF7A7FF0198C6
:10518000017B26A0FDF7A2FF0198417B28A0FDF737
:105190009DFF0198817B2BA0FDF798FF0198C17BB3
:1051A0002DA0FDF793FF0198017C30A0FDF78EFF45
:1051B000206B0090A36B626B29460120FDF798F8E5
:1051C000BCE70000000000200012FDFF001C0240B0
:1051D000595F617869733D202523780D0A0000002E
:1051E000595F617869735B305D3D202523780D0A36
:1051F00000000000595F617869735B315D3D2025D7
:1052000023780D0A00000000595F617869735B32F2
:105210005D3D202523780D0A00000000595F61786C
:1052200069735B335D3D202523780D0A0000000083
:10523000595F617869735B345D3D202523780D0AE1
:1052400000000000595F617869735B355D3D202582
:1052500023780D0A00000000595F617869735B369E
:105260005D3D202523780D0A00000000595F61781C
:1052700069735B375D3D202523780D0A000000002F
:1052800082B0234C234D244E0023C82201A9206A5A
:1052900000F054F9012804D010213046FBF7C7FD77
:1052A000F2E7019801781DA0FDF710FF0198417CFD
:1052B00021A0FDF70BFF0198817C24A0FDF706FFDC
:1052C0000198C17C26A0FDF701FF0198017D29A06E
:1052D000FDF7FCFE0198417D2BA0FDF7F7FE01983C
:1052E000817D2EA0FDF7F2FE0198C17D30A0FDF773
:1052F000EDFE0198017E33A0FDF7E8FE206B0090E3
:10530000A36B626B29460220FCF7F2FFBCE70000AA
:10531000000000200012FDFF002002405A5F61786B
:105320006973203A75634D657373616765494420FD
:105330003D202523780D0A005A5F617869735B3040
:105340005D203D202523780D0A0000005A5F61781A
:1053500069735B315D203D202523780D0A00000034
:105360005A5F617869735B325D203D202523780D9B
:105370000A0000005A5F617869735B335D203D204D
:105380002523780D0A0000005A5F617869735B3449
:105390005D203D202523780D0A0000005A5F6178CA
:1053A00069735B355D203D202523780D0A000000E0
:1053B0005A5F617869735B365D203D202523780D47
:1053C0000A0000005A5F617869735B375D203D20F9
:1053D0002523780D0A00000000B583B03448016829
:1053E000344A914207D1102080F31188BFF34F8FC8
:1053F000BFF36F8FFEE701682F48814207D110206D
:1054000080F31188BFF34F8FBFF36F8FFEE72B49F7
:1054100008780290FF200870087801909DF8040039
:105420009DF8042000F0F000904207D0102080F397
:105430001188BFF34F8FBFF36F8FFEE79DF8040015
:105440001F4A00F010001070072090609DF80400C3
:1054500010F0800F0BD09068401E90609DF8040003
:10546000400001909DF8040010F0800FF3D1107AF5
:10547000000200F4E0609060029808701148016832
:1054800041F470010160016841F070410160FFF773
:1054900079F800205060FAF7A1FE0B48016841F04E
:1054A00040410160FAF78AFE03B0002000BD000011
:1054B00000ED00E071C20F4170C20F4100E400E056
:1054C0007801002020ED00E034EF00E010B510205E
:1054D00080F31188BFF34F8FBFF36F8F00F0DAFABC
:1054E00018B104494FF080500860002080F3118803
:1054F00010BD000004ED00E0F8B505460E46174665
:10550000002D11D0C6B105FB06F05030FEF770FE3D
:1055100004463CB104F150023B4631462846009413
:10552000FEF798FB2046F8BD102080F31188BFF3EA
:105530004F8FBFF36F8FFEE70020E6E72DE9FF4FA7
:1055400083B004468A469B460025002C03D0BAF15E
:10555000000F08D011E0102080F31188BFF34F8FA7
:10556000BFF36F8FFEE7206C38B1102080F31188F5
:10557000BFF34F8FBFF36F8FFEE700F077FA48B9A4
:10558000059838B1102080F31188BFF34F8FBFF317
:105590006F8FFEE74FF000094FF08057DFF82C8146
:1055A000FEF78CFFA66B96B3E56851462046FEF7E2
:1055B000AFFABBF1000F13D0E560606A50B104F19F
:1055C000240000F01DFB28B1C8F80070BFF34F8F16
:1055D000BFF36F8FFEF792FF07B00120BDE8F08F99
:1055E000701EA063206810B9FEF774FE6060206929
:1055F0000028EFD004F1100000F002FB0028E9D0F1
:10560000C8F80070BFF34F8FBFF36F8FE2E7FFE77B
:10561000059808B135B109E0FEF770FF07B000202A
:10562000BDE8F08F6846FFF7ADFA0125FEF766FF8B
:10563000FFF7F8FAFEF742FF94F94400B0F1FF3F9C
:1056400001D184F8449094F94500B0F1FF3F01D1B5
:1056500084F84590FEF752FF05A9684600F096F9D8
:1056600068B12046FEF77CFD00F006FB2046FEF701
:10567000CDFB002894D007B00020BDE8F08F204675
:10568000FEF7C4FBE0B1206830B9FEF717FF606891
:10569000FFF782F9FEF732FF04F124000599FFF7C6
:1056A00043F92046FEF75CFD00F0E6FA00287FF49F
:1056B00077AFC8F80070BFF34F8FBFF36F8F6FE7FE
:1056C0002046FEF74DFD00F0D7FA69E704ED00E053
:1056D00070B504460D46002C25D0FEF7EFFE226C77
:1056E000E16B206801FB020060600020A06320687D
:1056F000A060E16B226C2068491E01FB0200E060A3
:105700004FF0FF3084F8440084F845009DB104F167
:105710001000FEF79DFE04F12400FEF799FEFEF74F
:10572000EDFE012070BD102080F31188BFF34F8F74
:10573000BFF36F8FFEE720690028F0D004F110005E
:1057400000F05EFA0028EAD004494FF0805008606B
:10575000BFF34F8FBFF36F8FE1E7000004ED00E070
:105760002DE9FF4782B004468A461F460025002CDB
:1057700003D0BAF1000F08D011E0102080F3118897
:10578000BFF34F8FBFF36F8FFEE7206C38B110204F
:1057900080F31188BFF34F8FBFF36F8FFEE7022FA7
:1057A0000AD1E06B012807D0102080F31188BFF3E5
:1057B0004F8FBFF36F8FFEE700F058F948B9049898
:1057C00038B1102080F31188BFF34F8FBFF36F8F74
:1057D000FEE700264FF08058DFF8F090FEF76EFEEF
:1057E000A06BE16B884205D3022F03D0049808B365
:1057F00035B329E03A4651462046FEF79BF9616AE7
:1058000059B104F1240000F0FBF968B1C9F8008037
:10581000BFF34F8FBFF36F8F06E028B1C9F8008048
:10582000BFF34F8FBFF36F8FFEF768FE06B0012006
:10583000BDE8F087FEF762FE06B00020BDE8F08705
:105840006846FFF79FF90125FEF758FEFFF7EAF9D2
:10585000FEF734FE94F94400B0F1FF3F01D184F823
:10586000446094F94500B0F1FF3F01D184F84560F0
:10587000FEF744FE04A9684600F088F840B12046CF
:10588000FEF76EFC00F0F8F906B00020BDE8F087E6
:105890002046FEF7C8FA90B104F110000499FFF712
:1058A00043F82046FEF75CFC00F0E6F9002895D1AD
:1058B000C9F80080BFF34F8FBFF36F8F8EE720468C
:1058C000FEF74EFC00F0D8F988E7000004ED00E098
:1058D0002DE9F0470446894617461E46002C03D0A2
:1058E000B9F1000F08D011E0102080F31188BFF348
:1058F0004F8FBFF36F8FFEE7206C38B1102080F31D
:105900001188BFF34F8FBFF36F8FFEE7022E0AD1CE
:10591000E06B012807D0102080F31188BFF34F8F70
:10592000BFF36F8FFEE7FEF73DFE1020EFF3118807
:1059300080F31188BFF34F8FBFF36F8FA06BE16BC4
:10594000884206D3022E04D0002088F31188BDE8D7
:10595000F08794F94550324649462046FEF7EAF86A
:10596000B5F1FF3F04D0681C84F845000120ECE746
:10597000606A0028FAD004F1240000F041F9002800
:10598000F4D0002FF2D001203860EFE770B5044664
:105990000D46002C11D0C5B1FEF790FD184AD06815
:1059A0002968B1F1FF3F18D02368126A934216D0DC
:1059B0006268824213D801241DE0102080F3118810
:1059C000BFF34F8FBFF36F8FFEE7102080F3118876
:1059D000BFF34F8FBFF36F8FFEE700240BE06268C9
:1059E000801A884206D2081A28602046FFF7CAF8B3
:1059F000002400E00124FEF781FD204670BD000078
:105A0000040100202DE9F04F85B081460F9F0E9EC6
:105A10008A4690469B464FEA8800FEF7E9FB05461A
:105A200028000AD06020FEF7E3FB04460CB1256392
:105A300004E02846FEF778FD00E000248CB1002049
:105A400003905B46424651460197009602944846B1
:105A5000FEF711F92046FDF7C1FF05B00120BDE8B2
:105A6000F08F05B04FF0FF30BDE8F08F0548416979
:105A7000002903D0006B18B1002070470120704747
:105A800002207047040100200148C06870470000F0
:105A9000040100202DE9F0470026304F386B002824
:105AA00008D0B869401CB861F86900B101263046D9
:105AB000BDE8F087F868451CFD609DB9386C00684A
:105AC00038B1102080F31188BFF34F8FBFF36F8F71
:105AD000FEE7386C796C39647864386A401C386247
