:020000040800F2
:10000000E88A002059020008B316000825140008E9
:10001000B11600087D0400088D1B000800000000D8
:100020000000000000000000000000009D0100082A
:100030007F04000800000000F1010008B716000866
:1000400073020008730200087302000873020008BC
:1000500073020008B5160008730200087302000856
:10006000730200087302000873020008730200089C
:10007000730200087302000873020008730200088C
:10008000730200087302000873020008730200087C
:10009000730200087302000873020008730200086C
:1000A000730200087302000873020008730200085C
:1000B000B9170008730200087302000873020008F1
:1000C000730200087302000873020008730200083C
:1000D000730200087302000873020008730200082C
:1000E000730200087302000873020008730200081C
:1000F000730200087302000873020008730200080C
:1001000073020008730200087302000873020008FB
:100110007302000873020008C51700087302000884
:1001200073020008730200087302000873020008DB
:1001300073020008730200087302000873020008CB
:1001400073020008730200087302000873020008BB
:1001500073020008730200087302000873020008AB
:10016000730200087302000873020008730200089B
:100170007302000873020008730200080000000008
:100180007302000873020008DFF80CD000F0DCF8FE
:10019000004800474D1F0008E88A00202B4B1968D3
:1001A0000868B0E8F04F80F30988BFF36F8F4FF015
:1001B000000080F3118870470000000006480068C6
:1001C000006880F3088862B661B6BFF34F8FBFF353
:1001D0006F8F00DF00BF00BF08ED00E0DFF80C000C
:1001E000016841F470010160704700BF88ED00E0D4
:1001F000EFF30980BFF36F8F144B1A681EF0100FD6
:1002000008BF20ED108A20E9F04F106008B44FF0CD
:10021000100080F31188BFF34F8FBFF36F8F02F090
:10022000B7FF4FF0000080F3118808BC1968086818
:10023000B0E8F04F1EF0100F08BFB0EC108A80F34A
:100240000988BFF36F8F704700BF00BF48000020D0
:10025000EFF30580704700000648804706480047D6
:10026000FEE7FEE7FEE7FEE7FEE7FEE7FEE7FEE766
:10027000FEE7FEE7611700088901000840EA010374
:100280009B0703D009E008C9121F08C0042AFAD24C
:1002900003E011F8013B00F8013B521EF9D2704710
:1002A000D2B201E000F8012B491EFBD270470022B8
:1002B000F6E710B513460A4604461946FFF7F0FF65
:1002C000204610BD421C10F8011B0029FBD1801AEA
:1002D0007047034611F8012B00F8012B002AF9D1D1
:1002E000184670472DE9F05F0546002092469B4670
:1002F00088460646814640241BE02846414647463C
:10030000224600F042F853465A46C01A914110D393
:1003100011461846224600F029F82D1A67EB01080D
:100320004F4622460120002100F020F817EB00097B
:100330004E41201EA4F10104DFDC484631462A4626
:100340004346BDE8F09F0000064C074D06E0E0681C
:1003500040F0010394E8070098471034AC42F6D30C
:10036000FFF716FF743F0008943F0008202A04DBC3
:10037000203A00FA02F1002070479140C2F12003B8
:1003800020FA03F3194390407047202A04DB203AF7
:1003900021FA02F00021704721FA02F3D040C2F1A5
:1003A00020029140084319467047000010B5002212
:1003B00001210A2003F0FCF8044C206100220421F2
:1003C0000A2003F0F5F8606110BD00000000002075
:1003D00000B583B0012115484A0200910190002325
:1003E00013A1164803F06AFB022115480A02009186
:1003F0000190002313A1164803F060FB1548032168
:100400000091019000234FF4007213A1154803F0EE
:1004100055FB04211448CA0100910190002313A147
:10042000154803F04BFB03B000BD000000000020A6
:10043000765461736B557365724946000D3200083E
:1004400004000020765461736B4C45443100000079
:10045000C92D000808000020765461736B4C454498
:1004600032000000952E00080C00002076546173C5
:100470006B4C454433000000F92E0008FEE770473E
:1004800010B50121034800F02FF908B1002010BD7C
:10049000012010BD0014024010B50221034800F0F5
:1004A00023F908B1002010BD012010BD0014024046
:1004B00010B54FF48061044800F016F908B100202F
:1004C00010BD012010BD0000002002402DE9F84FB2
:1004D0000022DFF80082DFF80092DFF800A24FF080
:1004E000030E0F27012303FA02F50B682B40AB42E2
:1004F0007DD1D1F804C0BCF1020F02D0BCF1120FC3
:1005000012D14FEAD20C00EB8C0CDCF820605407BF
:10051000E40E07FA04FB26EA0B06D1F810B00BFA3A
:1005200004F43443CCF8204006684FEA420C0EFA3B
:100530000CF4A64391F804B00BF0030B0BFA0CFB80
:100540004BEA060606604E68012E05D0022E03D047
:10055000112E01D0122E11D18668A643D1F80CB00D
:100560000BFA0CFB4BEA06068660466826EA050590
:100570000E79C6F30016964035434560C56825EAF6
:1005800004048D6805FA0CFC4CEA040CC0F80CC09D
:10059000D1F804C01CF0805F7DD0D8F800C04CF4C6
:1005A000804CC8F800C0D8F800C00CF4804CCDF8DE
:1005B00000C022F0030C0CF1804404F59834D4F808
:1005C00008C895072D0F07FA05F62CEA0606A0F1D4
:1005D000804CBCF5003C64D0A0F1804CBCF5013CE3
:1005E00062D0A0F1804CBCF5023C60D000E052E04B
:1005F000A0F1804CBCF5033C5CD0A0F1804CBCF574
:10060000043C5AD0A0F1804CBCF5053C58D0A0F178
:10061000804CBCF5063C56D0A0F1804CBCF5073CA4
:1006200054D04FF0080C0CFA05FC4CEA060CC4F848
:1006300008C8D9F800C02CEA030C4C6814F4803FB9
:1006400001D04CEA030CC9F800C0254CD4F800C016
:100650002CEA030C4D6815F4003F01D04CEA030C62
:10066000C4F800C0DAF800C02CEA030C4C6814F49B
:10067000801F01D04CEA030CCAF800C0194CD4F812
:1006800000C02CEA030C4D6815F4001F01D04CEAA1
:10069000030CC4F800C0521C102AFFF423AFBDE8BD
:1006A000F88F4FF0000CBEE74FF0010CBBE74FF0A6
:1006B000020CB8E74FF0030CB5E74FF0040CB2E7BB
:1006C0004FF0050CAFE74FF0060CACE74FF0070C0E
:1006D000A9E7000044380240003C0140083C0140CA
:1006E000043C01400C3C01400069084201D001205B
:1006F0007047002070474269514041617047002AAD
:1007000001D0816170470904816170470148006828
:10071000704700003C00002002480168491C01604D
:10072000704700003C00002010B50B48016841F400
:1007300000710160016841F480610160016841F469
:1007400080710160032000F091F8002000F006F8AD
:1007500000F018F8002010BD003C024010B504461F
:1007600007484FF47A720068B0FBF2F000F034FCF6
:1007700000222146501E00F045F8002010BD000068
:100780004000002010B5032000F070F80022114650
:100790006FF00B0000F036F8002211466FF00A00EF
:1007A00000F030F8002211466FF0090000F02AF83E
:1007B00000221146501F00F025F800221146101F9C
:1007C00000F020F800221146901E00F01BF80022D5
:1007D0000F21501E00F016F800221146052000F0EF
:1007E00011F8BDE810400520AFF3008000F01F01B4
:1007F000012202FA01F14009800000F1E020C0F876
:100800000011704710B4184B1B68C3F30223C3F1E7
:10081000070CBCF1040F01D94FF0040C1C1D072C70
:1008200001D2002300E0DB1E012404FA0CFCACF131
:10083000010C0CEA0101994004FA03F35B1E1A4013
:100840001143002808DA00F00F0000F1E020090150
:1008500080F8141D10BC704700F1E020090180F8F9
:10086000001410BC704700000CED00E000F0070021
:10087000064A11684FF6FF03194041EA002040F094
:10088000FD7040F080601060704700000CED00E0EB
:100890002DE9F05F04460E46DFF8D091D9F800004C
:1008A000F7B200F00F00B0420AD289F80070D9F810
:1008B000000000F00F00B04202D00120BDE8F09F20
:1008C0002078DFF8AC8110F0020F07D0D8F80000D4
:1008D000A16820F0F0000843C8F80000207810F06C
:1008E000010F51D060686349012808D002280DD05B
:1008F00003280BD0096811F0020F2ED00AE0096816
:1009000011F4003F06D10120BDE8F09F096811F005
:10091000007F1FD0D8F8001021F003010843C8F869
:100920000000FFF7F3FE0546606841F2883A0128AF
:1009300016D0022829D003283CD0D8F8000010F0A7
:100940000C0F51D0FFF7E2FE401B504547D9032062
:10095000BDE8F09F0120BDE8F09F0120BDE8F09FB9
:10096000D8F8000000F00C0004283DD0FFF7CEFEC0
:10097000401B504502D90320BDE8F09FD8F8000085
:1009800000F00C000428F1D12EE0D8F8000000F0AF
:100990000C00082828D0FFF7B9FE401B504502D9AB
:1009A0000320BDE8F09FD8F8000000F00C000828F4
:1009B000F1D119E0D8F800004FF00C0B3BEA000031
:1009C00012D0FFF7A3FE401B504502D90320BDE81B
:1009D000F09FD8F800003BEA0000F2D104E0D8F81C
:1009E000000010F00C0FADD1D9F8000000F00F009E
:1009F000B0420AD989F80070D9F8000000F00F0061
:100A0000B04202D00120BDE8F09F207810F0040F22
:100A100007D0D8F80000E16820F4E0500843C8F897
:100A20000000207810F0080F08D0D8F800002169E5
:100A300020F4604040EAC100C8F8000000F058F817
:100A4000D8F80010F02292FAA2F201F0F001B2FA06
:100A500082F2D140084A515CC84008490860002031
:100A6000FFF77CFE0020BDE8F09F0000003C024044
:100A70000838024000380240C43E00084000002010
:100A800001490120C86470470000474201480068DE
:100A9000704700004000002000B5FFF7F7FF07494E
:100AA00009684FF4E05292FAA2F201F4E051B2FA6E
:100AB00082F2D140024A515CC84000BD0838024071
:100AC000D43E000800B5FFF7E1FF074909684FF47D
:100AD000604292FAA2F201F46041B2FA82F2D1408D
:100AE000024A515CC84000BD08380240D43E0008AC
:100AF00010B41F48006810F00C011E481BD04FEACC
:100B0000600C042916D0082915D11B4A116801F080
:100B10003F01136813F4800F47F6C0730DD0BCFB80
:100B2000F1F01168194093FAA3F3B3FA83F3D940B3
:100B300048430CE0604610BC7047B0FBF1F0116810
:100B4000194093FAA3F3B3FA83F3D94048431168E9
:100B50004FF4403292FAA2F201F44031B2FA82F23A
:100B6000D140491C4900B0FBF1F010BC70470000B7
:100B7000083802400024F400043802402DE9F84F00
:100B80000446DFF81C842078A8F1040710F0010F58
:100B9000A7F1040560D0D8F8000000F00C0004288C
:100BA00009D0D8F8000000F00C0008280DD13868F2
:100BB00010F4800F09D0286810F4003F4CD0606812
:100BC000002849D10120BDE8F88F6068B0F5803F6A
:100BD00014D0B0F5A02F16D0286820F480302860FB
:100BE000286820F480202860606810B3FFF78EFD2D
:100BF0000646286810F4003F0ED02DE0286840F427
:100C000080302860F0E7286840F480202860286859
:100C100040F480302860E7E7FFF778FD801B642808
:100C200002D90320BDE8F88F286810F4003FF3D004
:100C300012E0FFF76BFD0646286810F4003F0BD06A
:100C4000FFF764FD801B642802D90320BDE8F88FFC
:100C5000286810F4003FF3D12078DFF8489310F0B3
:100C6000020F4FF0000663D0D8F800004FF0F80BE9
:100C700010F00C0F16D0D8F8000000F00C00082877
:100C800003D1386810F4800F0CD0E068C8B301209D
:100C9000C9F80000FFF73AFD8246286810F0020FFD
:100CA00016D022E0286810F0020F05D0E068012875
:100CB00002D00120BDE8F88F28689BFAABF22169C9
:100CC000B2FA82F220F0F8009140084328602FE049
:100CD000FFF71CFDA0EB0A00022802D90320BDE8A3
:100CE000F88F286810F0020FF2D028689BFAABF258
:100CF0002169B2FA82F220F0F8009140084328609E
:100D000016E0FFE7C9F80060FFF700FD824628689B
:100D100010F0020F0CD0FFF7F9FCA0EB0A0002283C
:100D200002D90320BDE8F88F286810F0020FF2D135
:100D3000207810F0080F34D09B48DFF870B261695A
:100D4000C1B101210160FFF7E1FC8246DBF8000040
:100D500010F0020F25D1FFF7D9FCA0EB0A00022802
:100D600002D90320BDE8F88FDBF8000010F0020F75
:100D7000F1D016E00660FFF7C9FC8246DBF8000000
:100D800010F0020F0DD0FFF7C1FCA0EB0A00022803
:100D900002D90320BDE8F88FDBF8000010F0020F45
:100DA000F1D1207810F0040F43D08148016841F060
:100DB00080510160006800F080500090DFF8F4B1CD
:100DC000DBF8000040F48070CBF80000FFF79EFCD9
:100DD0008246DBF8000010F4807F0DD1FFF796FC0F
:100DE000A0EB0A00022802D90320BDE8F88FDBF847
:100DF000000010F4807FF1D0A068DFF8BCB10128BA
:100E000018D005281DD0DBF8000020F00100CBF839
:100E10000000DBF8000020F00400CBF80000A06820
:100E200068B3FFF773FC8246DBF8000010F0020F96
:100E300014D03CE0DBF8000040F00100CBF80000EB
:100E4000EDE7DBF8000040F00400CBF80000DBF831
:100E5000000040F00100CBF80000E0E7FFF756FC8F
:100E6000A0EB0A0141F28830814202D90320BDE89B
:100E7000F88FDBF8000010F0020FEFD017E0FFF75B
:100E800045FC8246DBF8000010F0020F0FD0FFF7A0
:100E90003DFCA0EB0A0141F28830814202D90320D7
:100EA000BDE8F88FDBF8000010F0020FEFD1A06969
:100EB000F0B3D8F8001001F00C0108296CD002281A
:100EC00010D0C9F86060FFF721FC0446286810F0D4
:100ED000007F5ED0FFF71AFC001B022855D90320C3
:100EE000BDE8F88FC9F86060FFF710FC0646286877
:100EF00010F0007F0BD0FFF709FC801B022802D9FD
:100F00000320BDE8F88F286810F0007FF3D1216A34
:100F1000E0694FF0FF3340EA010247F6C07191FAF1
:100F2000A1F1606AB1FA81F100FA01F1A06A00E072
:100F30002FE003EB50004FF4403393FAA3F3B3FADE
:100F400083F39840084310434FF0706292FAA2F284
:100F5000E16AB2FA82F29140084338600120C9F890
:100F60006000FFF7D3FB0446286810F0007F10D123
:100F7000FFF7CCFB001B022802D90320BDE8F88F45
:100F8000286810F0007FF3D003E0286810F0007F9D
:100F9000A0D10020BDE8F88F0120BDE8F88F000047
:100FA0000838024000004742800E47427438024031
:100FB0004038024000700040703802404FF0E0219D
:100FC000042804D0086920F004000861704708690B
:100FD00040F0040008617047401EB0F1807F01D3EB
:100FE000012070474FF0E0214861044AF020107062
:100FF00000208861072008610020704723ED00E091
:1010000070477047704770B50446206801694FF01B
:10101000000511F0020F17D0C16811F0020F13D0B4
:10102000E91E0161012020762068806910F0030F1D
:1010300003D02046FFF7E6FF05E0204600F09DF8CC
:10104000204600F09BF825762068016911F0040F16
:1010500018D0C16811F0040F14D06FF004010161C1
:10106000022020762068806910F4407F03D020465B
:10107000FFF7C8FF05E0204600F07FF8204600F0AB
:101080007DF825762068016911F0080F18D0C16835
:1010900011F0080F14D06FF00801016104202076D0
:1010A0002068C06910F0030F03D02046FFF7AAFFA5
:1010B00005E0204600F061F8204600F05FF8257654
:1010C0002068016911F0100F18D0C16811F0100FDD
:1010D00014D06FF010010161082020762068C069EB
:1010E00010F4407F03D02046FFF78CFF05E0204638
:1010F00000F043F8204600F041F8257620680169A9
:1011000011F0010F09D0C16811F0010F05D06FF087
:1011100001010161204600F033F82068016911F0F7
:10112000800F09D0C16811F0800F05D06FF08001E9
:1011300001612046FFF764FF2068016911F0400F4C
:1011400009D0C16811F0400F05D06FF04001016176
:10115000204600F027F82068016911F0200F0BD01D
:10116000C16811F0200F07D06FF020010161204607
:10117000BDE87040FFF745BF70BD70477047000085
:1011800006480068C16811F0010F06D004490A68DA
:10119000521C0A606FF0010101617047D800002005
:1011A00044000020704770B50446002C04D094F829
:1011B0003900002510B106E0012070BD84F83850D8
:1011C000204600F023F8242084F839002068C16804
:1011D00021F40051C160204600F0FAFA206801694C
:1011E00021F4904101612068416921F02A014161A7
:1011F0002068C16841F40051C160E563202084F893
:10120000390084F83A00002070BD000010B586B0A7
:101210000068A0F18041B1F588411DD10F480168F7
:1012200041F400310160006800F40030009020209B
:1012300001900220029001200390032004900720D7
:101240000590074C01A92046FFF740F94021019184
:1012500001A92046FFF73AF906B010BD4038024018
:10126000000C02402DE9F84304460D4691461E4607
:1012700094F83A00202802D00220BDE8F88355B344
:10128000B9F1000F27D094F83800012826D00120AA
:1012900084F838000027E763222084F83A00FFF73B
:1012A00035FA8046A4F82C90A4F82E90E08D002802
:1012B0003CD0E08D401EE085A068B0F5805F10D086
:1012C0004346002220212046009600F023FC10B364
:1012D0000320BDE8F8830120BDE8F8830220BDE8C3
:1012E000F8834346002220212046009600F012FC9D
:1012F00010B10320BDE8F883206928B12068406858
:10130000C1B229806D1C0EE020684068C0F308015E
:101310002980AD1C07E0206980B12068406800F09A
:101320007F0005F8010BE08D0028C2D1202084F851
:101330003A0084F838700020BDE8F88320684068DF
:1013400005F8010BEFE72DE9F84304460D469146F9
:101350001E4694F83900202802D00220BDE8F88308
:101360004DB3B9F1000F26D094F83800012825D0EC
:10137000012084F838000027E763212084F8390031
:10138000FFF7C4F98046A4F82490A4F82690E08CD6
:10139000A0B3E08C401EE084A068B0F5805F10D060
:1013A0004346002280212046009600F0B3FBF0B1B6
:1013B0000320BDE8F8830120BDE8F8830220BDE8E2
:1013C000F8834346002280212046009600F0A2FBCD
:1013D00010B10320BDE8F88328882168C0F3080015
:1013E0004860206908B16D1C05E0AD1C03E0216870
:1013F00015F8010B4860E08C0028CAD14346002252
:1014000040212046009600F085FB10B10320BDE886
:10141000F883202084F8390084F838700020BDE873
:10142000F883000006A3002010491A5C4A600A688D
:1014300012F0400FFBD0401CC0B22A28F5D3FEE7C3
:101440000D0A456E74657220486172644661756C60
:10145000745F48616E646C65722C20537973746597
:101460006D2048616C742E0D0A00000000100140D0
:1014700070B586B000252A48016841F0200101605E
:10148000016801F020010091016841F02001016034
:10149000016801F020010091016841F48071016050
:1014A000016801F480710091016841F01001016050
:1014B000016801F010010091016841F01001016024
:1014C000006800F01000009001240194029503943C
:1014D000144E01A93046FEF7F9FF02210191029551
:1014E000039401A93046FEF7F1FFA0020190029596
:1014F000039401A90C48FEF7E9FF0820019002952A
:1015000003940A4E01A93046FEF7E0FF1021019135
:101510000295039401A93046FEF7D8FF06B070BDCE
:101520003038024000140240002002400010024007
:10153000016000210171022242718271C171704704
:1015400011F0010F01D0002101710079704770B5D1
:1015500004460025607901281DD0022811D00125FC
:10156000022603281FD004280AD1E0790A30C0B22D
:10157000E0710A2804D32068804750B1A5716571D5
:1015800070BD206880470028FAD0E57104206071A2
:1015900070BD667170BD206880470028FAD1E57182
:1015A0000320607170BDE0790A30C0B2E0710A2892
:1015B000F8D32068804708B1657170BDA571667168
:1015C0002079401CC0B22071FA28F6D9FA20207187
:1015D00070BD0000F0B587B02148016841F080017E
:1015E0000160016801F080010191016841F0800112
:1015F0000160016801F080010191016841F480718E
:101600000160006800F480700190164F00221021E4
:101610003846FFF774F8002220213846FFF76FF8AC
:10162000002210213846FFF76AF81026029601249E
:1016300003940225059502A93846FEF747FF2020AE
:1016400002900394059502A93846FEF73FFF0296E3
:101650000394059502A90448FEF738FF07B0F0BDD2
:1016600030380240001C02400020024082B00021BD
:101670000C48026842F008020260006800F00800AE
:1016800001900A48084A02604FF4E13242608160EA
:10169000C16001610C2242618161C16102B0FFF74A
:1016A00082BD000030380240004400401401002098
:1016B000FEE77047704710B5FFF72EF8BDE8104001
:1016C00000F055BC30B593B000252348016841F0C7
:1016D00080510160006800F0805000901F48016850
:1016E00041F480410160006800F4804000900120D6
:1016F00006900004079002240C9480010D900820AD
:101700000E904FF4A8700F9010940720119006A827
:10171000FFF734FA0F200190029403954FF4A05084
:101720000490E0020590052101A8FFF7B1F8FFF74A
:10173000A7F9FFF7ABF94FF47A71B0FBF1F0FFF7BF
:101740004BFC0420FFF73AFC00220F21501EFFF74C
:1017500059F813B030BD000040380240007000401E
:101760000F48016841F4700101600E48016841F0C2
:10177000010101600C4A00211160026822F410226C
:1017800022F080720260031D084A1A60026822F487
:1017900080220260064801600649580608607047CA
:1017A00088ED00E000380240083802401030002484
:1017B0000C38024008ED00E00148FFF724BC0000AF
:1017C000540100200148FFF71EBC0000D800002093
:1017D0002DE9F04104462068016921F44051E26896
:1017E000114301612068C16821F4037121F414419F
:1017F0002369A268D4F81CC01A43636943EA0C0346
:101800001A431143C1602068416921F44071A26903
:1018100011434161E069BC4ABC49BD4D3226B0F577
:10182000004F5ED02068884202D0904240F0128182
:10183000FFF748F900EBC00101EB00106168890077
:10184000B0FBF1F7FFF73EF900EBC00101EB001030
:1018500061688900B0FBF1F0A5FB001040096FF052
:101860001801484307EB800006EB0010A5FB0010B1
:10187000400900F0F007FFF725F900EBC00101EB8C
:10188000001061688900B0FBF1F0A5FB0010400971
:1018900007EB0017FFF716F900EBC00101EB001092
:1018A00061688900B0FBF1F8FFF70CF900EBC001AB
:1018B00001EB001061688900B0FBF1F0A5FB00109E
:1018C00040096FF01801484308EB800006EB001058
:1018D000A5FB00102168C0F3431038448860BDE8C0
:1018E000F0812068884201D0904259D1FFF7EAF890
:1018F00000EBC00101EB001061684900B0FBF1F0A2
:10190000A5FB001040090701FFF7DCF800EBC00160
:1019100001EB001061684900B0FBF1F8FFF7D2F865
:1019200000EBC00101EB001061684900B0FBF1F071
:10193000A5FB001040096FF01801484308EB800038
:1019400006EBC000A5FB0010400900F0F80007EB13
:101950004007FFF7B7F800EBC00101EB001061682A
:101960004900B0FBF1F8FFF7ADF800EBC00101EB67
:10197000001061684900B0FBF1F0A5FB00104009C0
:101980006FF01801484308EB800006EBC000A5FB90
:1019900000102168C0F3421038448860BDE8F0812F
:1019A000FFF77AF800EBC00101EB00106168490015
:1019B000B0FBF1F0A5FB001040090701FFF76CF840
:1019C00000EBC00101EB001061684900B0FBF1F8C9
:1019D000FFF762F800EBC00101EB001061684900FD
:1019E000B0FBF1F0A5FB001040096FF0180148436F
:1019F00008EB800006EBC000A5FB0010400900F0DA
:101A0000F80007EB4007FFF747F800EBC00101EBD8
:101A1000001061684900B0FBF1F8FFF73DF800EBFA
:101A2000C00101EB001061684900B0FBF1F0A5FBBB
:101A3000001040096FF01801484308EB800006EBE6
:101A4000C000A5FB00102168C0F342103844886034
:101A5000BDE8F081FFF720F800EBC00101EB0010BA
:101A600061688900B0FBF1F7FFF716F800EBC001E1
:101A700001EB001061688900B0FBF1F0A5FB0010DC
:101A800040096FF01801484307EB800006EB001097
:101A9000A5FB0010400900F0F007FEF7FDFF00EB8A
:101AA000C00101EB001061688900B0FBF1F0A5FBFB
:101AB0000010400907EB0017FEF7EEFF00EBC00136
:101AC00001EB001061688900B0FBF1F8FEF7E4FF5C
:101AD00000EBC00101EB001061688900B0FBF1F080
:101AE000A5FB001040096FF01801484308EB800087
:101AF00006EB0010A5FB00102168C0F3431038442A
:101B00008860BDE8F0810000001401400010014031
:101B10001F85EB512DE9F0410446069D8846174686
:101B20001E462068006838EA000020D00020B84235
:101B300027D1B5F1FF3F1CD025B1FEF7E7FD801B93
:101B4000A84216D92068C16821F4D071C16020680C
:101B5000416921F001014161202084F8390084F8B5
:101B60003A00002084F838000320BDE8F08101200D
:101B7000DDE72068006838EA000005D00020B842A0
:101B8000D7D00020BDE8F0810120F8E7FEE7000093
:101B90000FB4054B10B503A9044A029800F02CF8C5
:101BA00010BC5DF814FB0000311F0008C4000020C9
:101BB0000FB4084B10B504A902AA039800F01CF852
:101BC000044602A9002000F077F9204610BC5DF819
:101BD00014FB0000B91E000802E008C8121F08C16B
:101BE000002AFAD170477047002001E001C1121F9E
:101BF000002AFBD1704700002DE9FF4F8DB09B46B6
:101C00000F460446002606E025280BD05A460F99B9
:101C10009047641C761C20780028F5D111B030461E
:101C2000BDE8F08F0025A8460122984900E0054351
:101C300014F8013F203B02FA03F00842F7D1207864
:101C40002E2817D114F8010F45F004052A280ED0CC
:101C50006FF02F022078A0F1300109290AD808EB93
:101C6000880102EB410100EB0108641CF2E757F820
:101C7000048B641C20786C280DD004DC4C2812D016
:101C80006A2811D104E074280DD07A280CD10AE01A
:101C900045F4001507E0617845F48015814202D1D2
:101CA000641C05F58015641C2278692A45D008DC7F
:101CB000002AB3D0582A69D0632A10D0642A08D1E8
:101CC0003BE0702A67D0732A13D0752A5CD0782A3B
:101CD0005CD010465A460F999047761CD3E017F80F
:101CE000040B8DF8000000208DF80100E94601206A
:101CF00003E057F8049B4FF0FF3069074FF00005F1
:101D000001D40AE06D1C45450DDA8542FADB19F86D
:101D100005100029F6D106E06D1C8542FCDB19F8A0
:101D200005100029F8D12E4404E019F8010B5A4699
:101D30000F9990476D1EF8D2A5E00A200021CDE949
:101D40000801C5F3025002280DD001CFC117031EB0
:101D500071F100030DDA4FF0000CD0EB0C006CEBCE
:101D600001012D2308E0FF1D27F00707F7E8020116
:101D7000EDE72B0504D52B238DF8283001233BE01C
:101D8000EB0739D02023F7E70A2000E010200021DC
:101D9000CDE9080107E01020002145F00405CDE958
:101DA00008014FF00808C5F3025002280FD001CFF8
:101DB00000214FF0000A2B071FD5702A0DD0DDE956
:101DC00008C38CF0100C5CEA030C0CD015E0FF1D6E
:101DD00027F00707F7E80201EBE740228DF82820FB
:101DE0004FF0010A0BE050EA010306D030238DF8D2
:101DF00028308DF8292002239A46582A04D024A29C
:101E00000DF120090B9209E026A2F9E7DDE908238C
:101E1000FEF768FA0B9B9B5C09F8013D50EA010252
:101E2000F4D1ADEB090020300890680701D44FF0E1
:101E300001080899884502DDA8EB010000E00020B8
:101E40008046002506E00AA85A46405D0F99904753
:101E50006D1C761C5545F6DB04E030205A460F9980
:101E60009047761CB8F10001A8F10108F5DC05E007
:101E700019F8010B5A460F999047761C0899481E8D
:101E800008900029F4DC641CC5E600000928010064
:101E900030313233343536373839616263646566E0
:101EA00000000000303132333435363738394142A2
:101EB00043444546000000000A68531C0B60107044
:101EC0007047000070B50546002D05D0154E3068EE
:101ED000854209D1002070BD102080F31188BFF326
:101EE0004F8FBFF36F8FFEE700F0C8FD6C6900F005
:101EF000E5FDF06B844202D0306C844201D10220B7
:101F000070BD0948844205D1A86A08B1022070BD9D
:101F1000032070BD0548844202D00CB1012070BD81
:101F2000042070BD48000020AC0200209802002070
:101F300013B54FF6FF73012269460348FFF703FA12
:101F4000009802B010BD000014010020FEF7ECFB69
:101F5000FFF7B8FBFFF78AFBFFF73CFBFFF788FAB8
:101F6000FEF736FAFEF722FA01F0CAF8FEE710B5DE
:101F700001F0D8FD012803D0BDE8104001F002BBFC
:101F800010BD00002DE9F04104460F46194EF568DA
:101F90003068001D00F0D0FC48B93068012190F88D
:101FA0002C0001FA00F0316921EA00003061B4F13F
:101FB000FF3F07D137B13068BDE8F041011D0E4841
:101FC00000F04FBD2C4430684460AC4206D230680B
:101FD000011D306CBDE8F04100F028BD3068011DE6
:101FE000F06B00F023FDB06A844200D2B462BDE819
:101FF000F081000048000020AC02002070B50446CB
:1020000000F03CFD1D4DA868401CA860286810B178
:10201000686938B10CE02C60A868012808D100F08C
:1020200083F905E02868E16AC06A884200D82C601C
:10203000686A401C68626064E06A01212A69814024
:10204000114329610E4900EB800001EB8000211D46
:1020500000F007FD00F032FD686900280CD0286808
:10206000E16AC06A884207D206494FF08050086092
:10207000BFF34F8FBFF36F8F70BD0000480000208B
:10208000D001002004ED00E010B500F0F7FC0D4C8D
:10209000206898B90C4800F0BBFC0C4800F0B8FC74
:1020A0000948E0601430206100221021142001F062
:1020B0007FFA206010B106A100F07EFDBDE810405F
:1020C00000F0FCBC8C000020C0020020D4020020E4
:1020D000546D72510000000070B5134D68680028FF
:1020E00020D0124E01F04CF8306820B1002401F0ED
:1020F0001FFE14B113E00124F9E700F0BFFCF06803
:10210000C468201D00F018FCA868401EA86068681C
:10211000401E686000F0D2FC204600F052F868686B
:102120000028DFD170BD0000480000209802002088
:102130000B46026C002A0CD0C1681144C160D0F873
:1021400004C0614501D30168C160C1681846FEF74B
:1021500095B870472DE9F041044616460027A56B57
:10216000226C002A10D0C6B1E068FEF787F8E1685B
:10217000206C091AE1602268914202D26168081A53
:10218000E060022E16D017E02068A8B9606801F060
:1021900045FD0746002060600EE0A068FEF76EF87F
:1021A000216CA0680844A0606168884204D320685C
:1021B000A06001E005B16D1E681CA0633846BDE853
:1021C000F08110B50446206B00F08EFC2046BDE87F
:1021D000104000F089BC00000749CA681168002956
:1021E00004D00021016019B1002070470121F9E7F6
:1021F000D0680068704700008C0000204FF4F04168
:10220000104810F0070F06D0C01D20F007000D4940
:10221000411AC1F5F0410C4A10600023536001449B
:10222000083921F00701103A11604B600B600B1A5E
:10223000436001604068906050604FF00040D060A3
:1022400070470000E8020020B0000020074E4FF069
:102250008054074DFFF740FF30680128FAD92C6001
:10226000BFF34F8FBFF36F8FF4E70000D001002062
:1022700004ED00E070B51D46049C002909D02260E1
:10228000E06321640121204601F07EFA84F84C507D
:1022900070BD2460F4E72DE9F05F82460B9F0A9D34
:1022A0000C9C0E4690469B464FEA8801A522206B67
:1022B000FDF7F6FF206BA8F1010100EB810020F093
:1022C00007094FF0000800202218315C82F8341012
:1022D000315C11B1401C1028F6D384F84380072DDF
:1022E00000D30625E562E564C4F85080201D00F0A7
:1022F0009AFB04F1180000F096FB2461C5F1070079
:10230000A0616462C4F85480C4F8588084F85C808A
:102310005A465146484600F0F9FA2060002F00D096
:102320003C60BDE8F09F000070B500240F4D04EB49
:10233000840005EB800000F06BFB641C072CF6D3D7
:102340000B4800F065FB0B4800F062FB0A4800F008
:102350005FFB0A4800F05CFB094800F059FB0948A4
:102360000349C1631431016470BD0000D001002035
:102370005C020020700200208402002098020020ED
:10238000AC0200204800002010B4144900E01146BF
:102390000A688242FBD34B6803EB010C844503D1EE
:1023A00040681844486008460C68D0F804C00CEB3C
:1023B0000003A3420CD10A4B1B689A4206D0526814
:1023C000624442600A681268026002E0036000E052
:1023D0000260814200D0086010BC7047B00000204D
:1023E000A000002010B5002441600061DFF838C073
:1023F00091420BD8D11A8269914201D3012410E095
:10240000011DDCF8100000F011FB0AE09A4203D233
:10241000994201D3012404E0011DDCF80C0000F016
:1024200005FB204610BD00008C00002010B50446BE
:1024300000F024FBA06B20B1002400F03FFB2046FD
:1024400010BD0124F9E710B5044600F017FBA06B9E
:10245000E16B884201D1012400E0002400F02EFB52
:10246000204610BD2DE9F04780460C4691460025D8
:102470002068002823D060684068606004F1080686
:10248000B04201D1416861606068C7686068D0F897
:1024900004C0C4F804C0B44502D1DCF80410616083
:1024A0006068D0F80CA005EBC50008EB80014B4636
:1024B0000122504600F0E2FB6D1CBA45E6D12846E9
:1024C000BDE8F087F8B505460E461448C068C068F8
:1024D000C468201D00F030FAE069012810D1A0691D
:1024E0002B46411932462046FFF77CFF40B10020C1
:1024F0000346014600902A46204601F0A9FC28B177
:10250000616A01B02046BDE8F0400847102080F322
:102510001188BFF34F8FBFF36F8FFEE78C00002051
:1025200030B587B0324D00231A4602A9286801F061
:1025300061F800285AD00298002803DA039A059916
:10254000049890470298002848DB049C606910B109
:10255000201D00F0F1F901A800F094F8024602985D
:102560000A283BD2DFE800F00505053A26370505C5
:102570003A260398A169034601442046FFF732FF3B
:1025800000B3616A20468847E069012826D100200F
:1025900000900398A169002342181946204601F0D3
:1025A00057FC78B9102080F31188BFF34F8FBFF329
:1025B0006F8FFEE70398A06128B18118134620466B
:1025C000FFF710FF0AE0102080F31188BFF34F8F50
:1025D000BFF36F8FFEE7204600F086FA00231A460D
:1025E00002A9286801F006F80028A4D107B030BD80
:1025F0008C000020F8B505460C4600F0C1FD684689
:1026000000F040F80646009810B101F091FBF8BDCB
:1026100044B9B54206D801F08BFB31462846FFF796
:1026200051FFF8BD0C481CB10169096891B1002443
:10263000A91B2246006800F0D3FA01F079FB0028BC
:10264000EFD106494FF080500860BFF34F8FBFF3C2
:102650006F8FF8BD0124EBE78C00002004ED00E053
:102660000749C86B0068002805D0C86BC068C068FF
:102670004068886270474FF0FF3088627047000002
:102680004800002070B5044601F05AFA0546074E8E
:10269000B068854204D200F00BF80120206001E010
:1026A00000202060B560284670BD00008C0000202E
:1026B000F8B51B4EF0680068002824D00027F068A9
:1026C000C0680568C468201D00F036F9616A2046BC
:1026D0008847E069012812D1A0692844A84206D998
:1026E00060602461211DF06800F0A0F907E000237C
:1026F0002A4619462046009701F0AAFB40B1F0682F
:1027000000680028DBD1F0683169F1603061F8BD04
:10271000102080F31188BFF34F8FBFF36F8FFEE758
:102720008C00002000210278A52A04D1401C491CFD
:102730000278A52AFAD0880880B270470A48406813
:10274000B0F1FF3F07D0102080F31188BFF34F8F07
:10275000BFF36F8FFEE7102080F31188BFF34F8F18
:10276000BFF36F8FFEE70000B800002082B001A821
:10277000FFF732FD0199FFF73DFFFFF7D1FEF6E7C6
:1027800070B5044600F07AF994F94550002D0CDD3F
:10279000606A50B104F1240001F08EFA08B100F033
:1027A00019FC681E45B2002DF2DC4FF0FF3684F8AC
:1027B000456000F083F900F061F994F94450002D70
:1027C0000CDD206950B104F1100001F075FA08B178
:1027D00000F000FC681E45B2002DF2DC84F8446075
:1027E000BDE8704000F06AB910B504462046FDF718
:1027F00070FD2046FDF766FD0F2804D220212154EC
:10280000401C0F28FBD300212154204410BD0000A0
:102810002DE9F0410546002600F0B2FC334F386840
:1028200008B9FFF7EBFCF86805424ED19DB10835B9
:1028300015F0070F0FD005F00700C0F108000544A0
:1028400015F0070F07D0102080F31188BFF34F8FCA
:10285000BFF36F8FFEE7002D37D07868854234D8FC
:1028600023490846046801E0214604466068A842FE
:1028700002D220680028F7D13868844225D0086841
:1028800000F10806206808606068411B10290FD914
:10289000601910F0070F07D0102080F31188BFF3E4
:1028A0004F8FBFF36F8FFEE741606560FFF76CFDF0
:1028B00061687868401A7860BA68904200D2B8605F
:1028C000F868084360600020206001F031FA16F0DB
:1028D000070F07D0102080F31188BFF34F8FBFF38D
:1028E0006F8FFEE73046BDE8F0810000A0000020B9
:1028F000B000002004490868002803D00868026D71
:10290000521C02650868704748000020001F4FF005
:1029100080730360001F21F001010160001F054961
:10292000016014380260001F6FF00201016020385E
:10293000704700003D2700080169436882689A607B
:10294000836842685A604A68824201D182684A605C
:10295000002202610868401E086070472DE9F047B8
:1029600006460B4617460024072500F009FCDFF851
:102970008C80D8F8080083423AD3DFF884906D1E2B
:1029800005EB850009EB800104EBC40006EB800039
:102990000122FFF767FD0444002DF0D104EBC400D1
:1029A00006EB80000222D8F83C10FFF75BFD0444E0
:1029B00004EBC40006EB80000222D8F84010FFF7B9
:1029C00051FD044404EBC40006EB800004220D49D1
:1029D000FFF748FD044404EBC40006EB800003222B
:1029E0000949FFF73FFD044417B108480068386003
:1029F00001F09EF92046BDE8F08700004800002065
:102A0000D001002098020020AC02002044000020E9
:102A100000F1080141604FF0FF328260C160016146
:102A200000210160704700210161704710B4D1F8A6
:102A300000C0BCF1FF3F02D000F1080202E00269D1
:102A400004E01A4653681C686445FAD953684B6021
:102A500099608A60516008610168491C016010BC7E
:102A6000704742684A6093688B60936859609160D0
:102A700008610168491C016070470000102080F364
:102A80001188BFF34F8FBFF36F8F0A494868401C0E
:102A9000486001280CD10848006810F0FF0F07D0EB
:102AA000102080F31188BFF34F8FBFF36F8FFEE7C5
:102AB00070470000B800002004ED00E009494868B4
:102AC000002806D0401E4860002801D180F31188FC
:102AD0007047102080F31188BFF34F8FBFF36F8FC3
:102AE000FEE70000B800002070B5002827D0A0F154
:102AF0000804134D6068E968084207D1102080F38C
:102B00001188BFF34F8FBFF36F8FFEE722683AB192
:102B1000102080F31188BFF34F8FBFF36F8FFEE754
:102B20008843606000F02CFB606869680844686056
:102B30002046FFF729FCBDE8704001F0F9B870BDF0
:102B4000A000002006484FF47A710068B0FBF1F055
:102B5000411E4FF0E02041610721016170470000F4
:102B60004000002010B5FDF773FB114910280ED36B
:102B700000F1E02090F8F0030A78904207D210208C
:102B800080F31188BFF34F8FBFF36F8FFEE70948C3
:102B90000068896800F4E060884207D9102080F35B
:102BA0001188BFF34F8FBFF36F8FFEE710BD00009A
:102BB000B80000200CED00E00022084B53F832C0B2
:102BC000BCF1000F03D0521C082AF7D3704743F81A
:102BD000321003EBC20148607047000090010020F2
:102BE00070B504460D461646FFF748FF94F94400B9
:102BF000B0F1FF3F4FF0000001D184F8440094F998
:102C00004510B1F1FF3F01D184F84500FFF756FFB1
:102C1000A06B28B93246294604F1240000F0FAF9E5
:102C20002046BDE87040FFF7ABBD000010B502467E
:102C30000020002A12D00F48006B38B1102080F31A
:102C40001188BFF34F8FBFF36F8FFEE700F098FA44
:102C500000211046FFF796F901F06AF8002807D125
:102C600005494FF080500860BFF34F8FBFF36F8F5F
:102C700010BD00004800002004ED00E02DE9F04107
:102C800007460C4690461E46002F0ED03D46256056
:102C900005F134006060E86A2061286BE061686CCF
:102CA000A060207B032803D00AE012480568EEE705
:102CB00000F066FAA86A08B10220207301F038F823
:102CC000E86C6061686DA061052E01D0267303E099
:102CD0003846FFF7F7F82073B8F1000F05D0286BDE
:102CE000FFF720FD2084BDE8F08100202084BDE8AE
:102CF000F08100004800002070B584B00646002531
:102D00003570294881680391806800EBC00080001D
:102D1000FFF77EFD0446200043D001AA0399FFF788
:102D20001DFE039021490198A1FB0010400901906C
:102D3000002833D00295039800282FD90298019AD1
:102D400000EBC00004EB80008169B1FBF2F5416843
:102D50003046FFF749FD06465DB102982B4600EB71
:102D6000C00004EB800012A182693046FEF720FF0C
:102D700009E0029811A100EBC00004EB8000826919
:102D80003046FEF715FF3046FDF79CFA06440298E0
:102D9000401C0290039902988842CFD32046FFF747
:102DA000A3FE04B070BD0000480000201F85EB5159
:102DB0000925750909257525250D0A0009257509B7
:102DC000093C3125250D0A0082B00F4C0F4D002320
:102DD000C82201A9606900F00DFC012804D010216F
:102DE0002846FDF788FCF2E70198017808A0FEF775
:102DF000CFFE0198816811A0FEF7CAFE01984188B4
:102E000019A0FEF7C5FEE2E700000020001C02400A
:102E1000BDD3CAD5B5BDCFFBCFA2B6D3C1D0CAFDF5
:102E2000BEDD70744D73672D3E75634D65737361C0
:102E300067654944203D2025640D0A00BDD3CAD5ED
:102E4000B5BDCFFBCFA2B6D3C1D0CAFDBEDD707475
:102E50004D73672D3E756C446174615B305D203D40
:102E60002025640D0A000000BDD3CAD5B5BDCFFB37
:102E7000CFA2B6D3C1D0CAFDBEDD70744D73672D2D
:102E80003E7573446174615B305D203D2025640DA7
:102E90000A00000082B00B4C0B4D00234FF49672D9
:102EA00001A9206900F0A6FB012804D020212846B2
:102EB000FDF721FCF1E79DF8041004A0FEF768FE81
:102EC000EBE7000000000020001C0240BDD3CAD583
:102ED000B5BDCFFBCFA2B6D3C1D0CAFDBEDD7563F1
:102EE00051756575654D736756616C7565203D203C
:102EF00025640D0A00000000044C10212046FDF757
:102F0000FAFB4FF47A70FFF791FEF6E700200240DB
:102F100070B584B006460024347029488168039156
:102F2000806800EBC0008000FFF772FC05462800B7
:102F300044D000220399FFF711FD039002940398F7
:102F400000282DD9029901EBC10005EB8002117B0D
:102F500001292BD002292BD003292BD004292BD0D7
:102F6000002430465168FFF73FFC0646029901EB0A
:102F7000C10005EB80010A8C8868009201900B6902
:102F8000224610A13046FEF713FE3046FDF79AF9AF
:102F900006440298401C0290039902988842D1D3BB
:102FA00004B02846BDE87040FFF79EBD5224D8E724
:102FB0004224D6E75324D4E74424D2E704B070BDBA
:102FC000480000200925630925750925750925751F
:102FD0000D0A000001490120C86170474800002027
:102FE00010B50C4600280BD0094A126802F11801EE
:102FF000FFF71CFD2046BDE810400121FEF7C2BFCF
:10300000102080F31188BFF34F8FBFF36F8FFEE75F
:103010004800002070B50D46144600280DD00B491D
:1030200009681831FFF71DFD0CB14FF0FF3521463F
:103030002846BDE87040FEF7A5BF102080F3118838
:10304000BFF34F8FBFF36F8FFEE7000048000020F3
:1030500070B5044600283BD01E4DE06A2968C96A55
:10306000884235D2A06910F0004F04D12868C06AA8
:10307000C0F10700A061E06A174E00EB80006169B3
:1030800006EB8000814220D1201DFFF755FC012175
:1030900058B9E06A00EB800256F822202AB92A6962
:1030A00001FA00F022EA000028612868C06AE062A4
:1030B0002A6981401143296100EB800006EB800002
:1030C000211DBDE87040FFF7CCBC2868C06AE062F3
:1030D00070BD000048000020D0010020002805D06D
:1030E00006490A6A0260C96841607047102080F38F
:1030F0001188BFF34F8FBFF36F8FFEE748000020AA
:1031000010B582B01848002401902346802217A1F0
:103110000094184800F0D2FC012801D100F06EFEA6
:1031200001280AD0B0F1FF3F1CD1102080F3118894
:10313000BFF34F8FBFF36F8FFEE7102080F311882E
:10314000BFF34F8FBFF36F8F0B484FF0FF3181629A
:1031500001214161C4600948046002B0BDE810402B
:1031600000F096B902B010BD7400002049444C45EF
:10317000000000004D22000848000020440000200C
:103180000248016B491C01637047000048000020A1
:103190001B4B186B002802D00120D861704700201B
:1031A000D8611848006898635A6B904205D919682D
:1031B000821AD1F854C062444A6558631869B0FA5B
:1031C00080F0C0F11F00104900EB800051F8202072
:1031D00072B101EB800041684968416000F108026A
:1031E000914201D1496841604068C06818607047E9
:1031F000102080F31188BFF34F8FBFF36F8FFEE76E
:103200004800002044000020D0010020ADF5007DE2
:103210004F495048FEF78CF94F495048FEF788F95E
:103220004F495048FEF784F94FA0FEF7B1FC574DC7
:10323000574CDFF860910027A5F134064FF0805815
:103240004448FEF784F94548FEF781F94548FEF702
:103250007EF94FF6FF7308224C494F48FEF702F8FB
:1032600029784EA0FEF794FC697851A0FEF790FCF7
:10327000A97854A0FEF78CFCE97957A0FEF788FCEA
:1032800000213448FEF75CF900281AD057A0FEF759
:103290007FFC63A0FEF77CFC03A8FFF739FE03A9BF
:1032A0006BA0FEF775FC6CA0FEF772FC03A8FFF79D
:1032B00023FD03A966A0FEF76BFC01212548FEF75C
:1032C0003FF900212548FEF73BF9F8B16D48FEF7BC
:1032D0005FFC019702942078401C2070A068401C7D
:1032E000A0606088401C6080002301AA02A9706968
:1032F00000F04AFB019828B1C9F80080BFF34F8F56
:10330000BFF36F8F01211548FEF71AF90021154808
:10331000FEF716F9C0B15C48FEF73AFC0297B069B7
:10332000401CB061002302AA5849306900F02CFB10
:10333000029828B1C9F80080BFF34F8FBFF36F8F99
:1033400001210848FEF7FCF81420FFF76FFC77E72F
:10335000810400081C0000209904000824000020BB
:10336000B10400082C0000204B455931A1A24B4567
:103370005932BACD4B455933B6D4D3A6B2BBCDAC36
:10338000C8CECEF1C7E9BFF60A0000003400002025
:10339000C800002004ED00E01401002061527842D2
:1033A00075666665725B305D3D252378200A0000F6
:1033B0006152784275666665725B315D3D252378A2
:1033C000200A00006152784275666665725B325D64
:1033D0003D252378200A00006152784275666665B3
:1033E000725B375D3D252378200A00003D3D3D3D61
:1033F0003D3D3D3D3D3D3D3D3D3D3D3D3D3D3D3DFD
:103400003D3D3D3D3D3D3D3D3D3D3D3D3D3D3D3DEC
:103410003D3D3D3D3D3D3D3D3D3D3D3D3D0D0A007C
:10342000C8CECEF1C3FB202020202020C8CECEF174
:10343000D7B4CCAC20D3C5CFC8BCB6202020CAA3FB
:10344000D3E0D5BB20C8CECEF1D0F2BAC50D0A006C
:1034500025730D0A000000000D0AC8CECEF1C3FB93
:1034600020202020202020D4CBD0D0BCC6CAFD20D4
:103470002020202020202020CAB9D3C3C2CA0D0A90
:1034800000000000DC3E0008283F00081800002073
:1034900000B583B034480168344A914207D1102006
:1034A00080F31188BFF34F8FBFF36F8FFEE7016882
:1034B0002F48814207D1102080F31188BFF34F8F2E
:1034C000BFF36F8FFEE72B4908780290FF2008704A
:1034D000087801909DF804009DF8042000F0F000A9
:1034E000904207D0102080F31188BFF34F8FBFF3B5
:1034F0006F8FFEE79DF804001F4A00F01000107067
:10350000072090609DF8040010F0800F0BD09068A9
:10351000401E90609DF80400400001909DF804005A
:1035200010F0800FF3D1107A000200F4E060906098
:10353000029808701148016841F470010160016847
:1035400041F070410160FFF7FDFA00205060FCF788
:1035500045FE0B48016841F040410160FCF72EFE3A
:1035600003B0002000BD000000ED00E071C20F417B
:1035700070C20F4100E400E0B800002020ED00E040
:1035800034EF00E010B5102080F31188BFF34F8FA7
:10359000BFF36F8F00F0DAFA18B104494FF0805092
:1035A0000860002080F3118810BD000004ED00E0E9
:1035B000F8B505460E461746002D11D0C6B105FBDD
:1035C00006F05030FFF724F904463CB104F15002F4
:1035D0003B46314628460094FEF74CFE2046F8BD97
:1035E000102080F31188BFF34F8FBFF36F8FFEE77A
:1035F0000020E6E72DE9FF4F83B004468A469B464C
:103600000025002C03D0BAF1000F08D011E01020E3
:1036100080F31188BFF34F8FBFF36F8FFEE7206CED
:1036200038B1102080F31188BFF34F8FBFF36F8F35
:10363000FEE700F077FA48B9059838B1102080F31A
:103640001188BFF34F8FBFF36F8FFEE74FF0000974
:103650004FF08057DFF82C81FFF710FAA66B96B376
:10366000E56851462046FEF763FDBBF1000F13D01D
:10367000E560606A50B104F1240000F01DFB28B140
:10368000C8F80070BFF34F8FBFF36F8FFFF716FAC4
:1036900007B00120BDE8F08F701EA063206810B94C
:1036A000FFF728F9606020690028EFD004F11000CE
:1036B00000F002FB0028E9D0C8F80070BFF34F8F7C
:1036C000BFF36F8FE2E7FFE7059808B135B109E076
:1036D000FFF7F4F907B00020BDE8F08F6846FFF768
:1036E000FDFC0125FFF7EAF9FFF74AFDFFF7C6F9F0
:1036F00094F94400B0F1FF3F01D184F8449094F96B
:103700004500B0F1FF3F01D184F84590FFF7D6F9AD
:1037100005A9684600F096F968B12046FFF730F831
:1037200000F006FB2046FEF781FE002894D007B08B
:103730000020BDE8F08F2046FEF778FEE0B120685B
:1037400030B9FFF79BF96068FFF782FCFFF7B6F925
:1037500004F124000599FFF743FC2046FFF710F819
:1037600000F0E6FA00287FF477AFC8F80070BFF3E6
:103770004F8FBFF36F8F6FE72046FFF701F800F020
:10378000D7FA69E704ED00E070B504460D46002C59
:1037900025D0FFF773F9226CE16B206801FB020072
:1037A00060600020A0632068A060E16B226C20684C
:1037B000491E01FB0200E0604FF0FF3084F8440036
:1037C00084F845009DB104F11000FFF721F904F1E0
:1037D0002400FFF71DF9FFF771F9012070BD1020DB
:1037E00080F31188BFF34F8FBFF36F8FFEE720691F
:1037F0000028F0D004F1100000F05EFA0028EAD0B2
:1038000004494FF080500860BFF34F8FBFF36F8FB4
:10381000E1E7000004ED00E02DE9FF4782B0044637
:103820008A461F460025002C03D0BAF1000F08D0AD
:1038300011E0102080F31188BFF34F8FBFF36F8F1B
:10384000FEE7206C38B1102080F31188BFF34F8F52
:10385000BFF36F8FFEE7022F0AD1E06B012807D07C
:10386000102080F31188BFF34F8FBFF36F8FFEE7F7
:1038700000F058F948B9049838B1102080F3118845
:10388000BFF34F8FBFF36F8FFEE700264FF08058D6
:10389000DFF8F090FFF7F2F8A06BE16B884205D3F8
:1038A000022F03D0049808B335B329E03A465146B5
:1038B0002046FEF74FFC616A59B104F1240000F084
:1038C000FBF968B1C9F80080BFF34F8FBFF36F8F6A
:1038D00006E028B1C9F80080BFF34F8FBFF36F8FA8
:1038E000FFF7ECF806B00120BDE8F087FFF7E6F837
:1038F00006B00020BDE8F0876846FFF7EFFB012522
:10390000FFF7DCF8FFF73CFCFFF7B8F894F9440048
:10391000B0F1FF3F01D184F8446094F94500B0F163
:10392000FF3F01D184F84560FFF7C8F804A9684655
:1039300000F088F840B12046FEF722FF00F0F8F9C9
:1039400006B00020BDE8F0872046FEF77CFD90B170
:1039500004F110000499FFF743FB2046FEF710FF27
:1039600000F0E6F9002895D1C9F80080BFF34F8F29
:10397000BFF36F8F8EE72046FEF702FF00F0D8F905
:1039800088E7000004ED00E02DE9F0470446894691
:1039900017461E46002C03D0B9F1000F08D011E0E5
:1039A000102080F31188BFF34F8FBFF36F8FFEE7B6
:1039B000206C38B1102080F31188BFF34F8FBFF314
:1039C0006F8FFEE7022E0AD1E06B012807D010208E
:1039D00080F31188BFF34F8FBFF36F8FFEE7FFF7C0
:1039E000C1F81020EFF3118880F31188BFF34F8FD7
:1039F000BFF36F8FA06BE16B884206D3022E04D019
:103A0000002088F31188BDE8F08794F945503246CC
:103A100049462046FEF79EFBB5F1FF3F04D0681CE7
:103A200084F845000120ECE7606A0028FAD004F130
:103A3000240000F041F90028F4D0002FF2D001203A
:103A40003860EFE770B504460D46002C11D0C5B1C3
:103A5000FFF714F8184AD0682968B1F1FF3F18D071
:103A60002368126A934216D06268824213D80124F6
:103A70001DE0102080F31188BFF34F8FBFF36F8FCD
:103A8000FEE7102080F31188BFF34F8FBFF36F8FD5
:103A9000FEE700240BE06268801A884206D2081A0A
:103AA00028602046FFF71AFB002400E00124FFF7FE
:103AB00005F8204670BD0000480000202DE9F04FB9
:103AC00085B081460F9F0E9E8A4690469B464FEAE0
:103AD0008800FEF79DFE054628000AD06020FEF70C
:103AE00097FE04460CB1256304E02846FEF7FCFF70
:103AF00000E000248CB1002003905B464246514612
:103B00000197009602944846FEF7C5FB2046FEF753
:103B100075FA05B00120BDE8F08F05B04FF0FF3019
:103B2000BDE8F08F05484169002903D0006B18B14A
:103B30000020704701207047022070474800002095
:103B40000148C06870470000480000202DE9F04798
:103B50000026304F386B002808D0B869401CB86187
:103B6000F86900B101263046BDE8F087F868451CC9
:103B7000FD609DB9F86B006838B1102080F31188A2
:103B8000BFF34F8FBFF36F8FFEE7F86B396CF963AC
:103B90003864386A401C3862FEF762FDB86ADFF8A4
:103BA000788085420FD34FF00109F86B006838B177
:103BB000F86BC068C468606885420ED2B86202E0E3
:103BC0004FF0FF30B8623868C06A00EB800058F8E8
:103BD00020000128C4D90126C2E7201DFEF7ACFE53
:103BE000A06A18B104F11800FEF7A6FEE16A3A696E
:103BF00009FA01F01043386101EB810008EB800005
:103C0000211DFEF72EFFE06A3968C96A8842CCD3CD
:103C10000126CAE748000020D001002070B5044604
:103C20000021002841D0224D2868844207D010206E
:103C300080F31188BFF34F8FBFF36F8FFEE7206DC6
:103C400038B1401E2065E36CE26A9A422DD040B143
:103C50002BE0102080F31188BFF34F8FBFF36F8FDD
:103C6000FEE7201DFEF768FE1249012258B9E06AFE
:103C700000EB800351F823302BB92B6902FA00F0D6
:103C800023EA00002861E06CE062C0F10700A06157
:103C9000E06A2B6982401A432A6100EB800001EB45
:103CA0008000211DFEF7DDFE0121084670BD0000E9
:103CB00048000020D001002070B5C068C468002C06
:103CC00014D004F11800FEF737FE164D286B0126BC
:103CD000A0B104F118011448FEF7C3FEE06A296898
:103CE000C96A88421CD90120EE6170BD102080F3A2
:103CF0001188BFF34F8FBFF36F8FFEE7201DFEF7D4
:103D00001BFEE06A2A6906FA00F11143296107499E
:103D100000EB800001EB8000211DFEF7A2FEDDE735
:103D2000002070BD4800002084020020D001002047
:103D30002DE9F0470024A0462D4D286B002807D020
:103D4000FEF79CFE286B401E2863286B40B149E0BB
:103D5000102080F31188BFF34F8FBFF36F8FFEE702
:103D6000A86800283ED0234F0126386800B3A7F189
:103D7000B409F868C46804F11800FEF7DDFD201DE1
:103D8000FEF7DAFDE06A2A6906FA00F111432961BB
:103D900000EB800009EB8000211DFEF762FEE06A67
:103DA0002968C96A884200D3EE6138680028E0D1EA
:103DB0000CB1FEF755FCAC6944B1FFF7C7FE00B18A
:103DC000EE61641E002CF8D10020A861E86948B1BA
:103DD0004FF0010808494FF080500860BFF34F8F43
:103DE000BFF36F8FFEF76AFE4046BDE8F087000024
:103DF000480000208402002004ED00E010B582B0ED
:103E00000024FEF741F90D48006858B10C4805211F
:103E10000091019000234FF480720AA10B48FFF734
:103E20004DFE044614B102B0204610BD102080F3B0
:103E30001188BFF34F8FBFF36F8FFEE78C00002018
:103E400090000020546D7220537663006D270008A7
:103E5000F0B585B084460A9D16461F460022BCF187
:103E6000000F14D0164C206800B300910196CDF8D5
:103E700008C006291BDAFFF755FE02280FD00023E1
:103E80001A4669462068FFF7C7FC024615E0102075
:103E900080F31188BFF34F8FBFF36F8FFEE70023CE
:103EA0002A4669462068FFF7B7FC024605E0002372
:103EB0003A466946FFF768FD024605B01046F0BD78
:103EC0008C0000200000000000000000010203043C
:103ED0000607080900000000010203044B4559329F
:103EE000B0B4CFC2A3ACC6F4B6AFB5A5B4CEB6A835
:103EF000CAB1C6F7D6D0B6CFA3AC35306D73BAF31E
:103F0000D4DAB6A8CAB1C6F7D6D0B6CFB8F8C8CEFC
:103F1000CEF1765461736B4D736750726FB7A2CB5D
:103F2000CDCFFBCFA20D0A004B455933B0B4CFC261
:103F3000A3ACC6F4B6AFB5A5B4CEB6A8CAB1C6F7A1
:103F4000D6D0B6CFA3AC35306D73BAF3D4DAB6A8F9
:103F5000CAB1C6F7D6D0B6CFB8F8C8CECEF176542F
:103F600061736B4D736750726FB7A2CBCDCFFBCF30
:103F7000A20D0A00943F000800000020C8000000C5
:103F8000D81B00085C400008C8000020208A000000
:103F9000E81B000800000000000000000000000016
:103FA0000000000000000000000000000000000011
:103FB0000000000000000000000000000000000001
:103FC00000000000000000000000000000000000F1
:103FD00000000000007A030A00000000000000005A
:103FE00000000000000000000000000000000000D1
:103FF00000000000000000000000000000000000C1
:1040000000000000000000000000000000000000B0
:1040100000000000000000000000000000000000A0
:104020000000000000000000000000000000000090
:104030000000000000000000000000000000000080
:104040000000000000000000000000000000000070
:0C405000AAAAAAAA0000000000000000BC
:040000050800018965
:00000001FF
